{
  "_format": "hh3-artifact-1",
  "contractName": "ClawIdentity",
  "sourceName": "contracts/ClawIdentity.sol",
  "abi": [
    {
      "inputs": [
        {
          "internalType": "address",
          "name": "initialOwner",
          "type": "address"
        }
      ],
      "stateMutability": "nonpayable",
      "type": "constructor"
    },
    {
      "inputs": [],
      "name": "AgentNotFound",
      "type": "error"
    },
    {
      "inputs": [],
      "name": "AlreadyRegistered",
      "type": "error"
    },
    {
      "inputs": [
        {
          "internalType": "address",
          "name": "sender",
          "type": "address"
        },
        {
          "internalType": "uint256",
          "name": "tokenId",
          "type": "uint256"
        },
        {
          "internalType": "address",
          "name": "owner",
          "type": "address"
        }
      ],
      "name": "ERC721IncorrectOwner",
      "type": "error"
    },
    {
      "inputs": [
        {
          "internalType": "address",
          "name": "operator",
          "type": "address"
        },
        {
          "internalType": "uint256",
          "name": "tokenId",
          "type": "uint256"
        }
      ],
      "name": "ERC721InsufficientApproval",
      "type": "error"
    },
    {
      "inputs": [
        {
          "internalType": "address",
          "name": "approver",
          "type": "address"
        }
      ],
      "name": "ERC721InvalidApprover",
      "type": "error"
    },
    {
      "inputs": [
        {
          "internalType": "address",
          "name": "operator",
          "type": "address"
        }
      ],
      "name": "ERC721InvalidOperator",
      "type": "error"
    },
    {
      "inputs": [
        {
          "internalType": "address",
          "name": "owner",
          "type": "address"
        }
      ],
      "name": "ERC721InvalidOwner",
      "type": "error"
    },
    {
      "inputs": [
        {
          "internalType": "address",
          "name": "receiver",
          "type": "address"
        }
      ],
      "name": "ERC721InvalidReceiver",
      "type": "error"
    },
    {
      "inputs": [
        {
          "internalType": "address",
          "name": "sender",
          "type": "address"
        }
      ],
      "name": "ERC721InvalidSender",
      "type": "error"
    },
    {
      "inputs": [
        {
          "internalType": "uint256",
          "name": "tokenId",
          "type": "uint256"
        }
      ],
      "name": "ERC721NonexistentToken",
      "type": "error"
    },
    {
      "inputs": [],
      "name": "NotAuthorizedProtocol",
      "type": "error"
    },
    {
      "inputs": [
        {
          "internalType": "address",
          "name": "owner",
          "type": "address"
        }
      ],
      "name": "OwnableInvalidOwner",
      "type": "error"
    },
    {
      "inputs": [
        {
          "internalType": "address",
          "name": "account",
          "type": "address"
        }
      ],
      "name": "OwnableUnauthorizedAccount",
      "type": "error"
    },
    {
      "anonymous": false,
      "inputs": [
        {
          "indexed": true,
          "internalType": "address",
          "name": "owner",
          "type": "address"
        },
        {
          "indexed": true,
          "internalType": "address",
          "name": "approved",
          "type": "address"
        },
        {
          "indexed": true,
          "internalType": "uint256",
          "name": "tokenId",
          "type": "uint256"
        }
      ],
      "name": "Approval",
      "type": "event"
    },
    {
      "anonymous": false,
      "inputs": [
        {
          "indexed": true,
          "internalType": "address",
          "name": "owner",
          "type": "address"
        },
        {
          "indexed": true,
          "internalType": "address",
          "name": "operator",
          "type": "address"
        },
        {
          "indexed": false,
          "internalType": "bool",
          "name": "approved",
          "type": "bool"
        }
      ],
      "name": "ApprovalForAll",
      "type": "event"
    },
    {
      "anonymous": false,
      "inputs": [
        {
          "indexed": true,
          "internalType": "address",
          "name": "previousOwner",
          "type": "address"
        },
        {
          "indexed": true,
          "internalType": "address",
          "name": "newOwner",
          "type": "address"
        }
      ],
      "name": "OwnershipTransferred",
      "type": "event"
    },
    {
      "anonymous": false,
      "inputs": [
        {
          "indexed": true,
          "internalType": "address",
          "name": "from",
          "type": "address"
        },
        {
          "indexed": true,
          "internalType": "address",
          "name": "to",
          "type": "address"
        },
        {
          "indexed": true,
          "internalType": "uint256",
          "name": "tokenId",
          "type": "uint256"
        }
      ],
      "name": "Transfer",
      "type": "event"
    },
    {
      "inputs": [
        {
          "internalType": "address",
          "name": "_protocol",
          "type": "address"
        }
      ],
      "name": "addAuthorizedProtocol",
      "outputs": [],
      "stateMutability": "nonpayable",
      "type": "function"
    },
    {
      "inputs": [
        {
          "internalType": "address",
          "name": "wallet",
          "type": "address"
        }
      ],
      "name": "agentOf",
      "outputs": [
        {
          "internalType": "uint256",
          "name": "",
          "type": "uint256"
        }
      ],
      "stateMutability": "view",
      "type": "function"
    },
    {
      "inputs": [
        {
          "internalType": "address",
          "name": "to",
          "type": "address"
        },
        {
          "internalType": "uint256",
          "name": "tokenId",
          "type": "uint256"
        }
      ],
      "name": "approve",
      "outputs": [],
      "stateMutability": "nonpayable",
      "type": "function"
    },
    {
      "inputs": [
        {
          "internalType": "address",
          "name": "",
          "type": "address"
        }
      ],
      "name": "authorizedProtocols",
      "outputs": [
        {
          "internalType": "bool",
          "name": "",
          "type": "bool"
        }
      ],
      "stateMutability": "view",
      "type": "function"
    },
    {
      "inputs": [
        {
          "internalType": "address",
          "name": "owner",
          "type": "address"
        }
      ],
      "name": "balanceOf",
      "outputs": [
        {
          "internalType": "uint256",
          "name": "",
          "type": "uint256"
        }
      ],
      "stateMutability": "view",
      "type": "function"
    },
    {
      "inputs": [
        {
          "internalType": "uint256",
          "name": "tokenId",
          "type": "uint256"
        }
      ],
      "name": "getApproved",
      "outputs": [
        {
          "internalType": "address",
          "name": "",
          "type": "address"
        }
      ],
      "stateMutability": "view",
      "type": "function"
    },
    {
      "inputs": [
        {
          "internalType": "address",
          "name": "wallet",
          "type": "address"
        }
      ],
      "name": "getMinerReputation",
      "outputs": [
        {
          "internalType": "uint32",
          "name": "totalCommits",
          "type": "uint32"
        },
        {
          "internalType": "uint32",
          "name": "correctPredictions",
          "type": "uint32"
        },
        {
          "internalType": "uint32",
          "name": "totalEndorsements",
          "type": "uint32"
        },
        {
          "internalType": "uint256",
          "name": "winRateBps",
          "type": "uint256"
        },
        {
          "internalType": "uint256",
          "name": "totalClawEarned",
          "type": "uint256"
        },
        {
          "internalType": "uint32",
          "name": "invalidCommits",
          "type": "uint32"
        }
      ],
      "stateMutability": "view",
      "type": "function"
    },
    {
      "inputs": [
        {
          "internalType": "uint256",
          "name": "agentId",
          "type": "uint256"
        }
      ],
      "name": "getStats",
      "outputs": [
        {
          "components": [
            {
              "internalType": "uint32",
              "name": "totalCommits",
              "type": "uint32"
            },
            {
              "internalType": "uint32",
              "name": "correctPredictions",
              "type": "uint32"
            },
            {
              "internalType": "uint32",
              "name": "totalEndorsements",
              "type": "uint32"
            },
            {
              "internalType": "uint32",
              "name": "invalidCommits",
              "type": "uint32"
            },
            {
              "internalType": "uint256",
              "name": "totalClawEarned",
              "type": "uint256"
            }
          ],
          "internalType": "struct ClawIdentity.MinerStats",
          "name": "",
          "type": "tuple"
        }
      ],
      "stateMutability": "view",
      "type": "function"
    },
    {
      "inputs": [
        {
          "internalType": "uint256",
          "name": "agentId",
          "type": "uint256"
        }
      ],
      "name": "incrementCommits",
      "outputs": [],
      "stateMutability": "nonpayable",
      "type": "function"
    },
    {
      "inputs": [
        {
          "internalType": "uint256",
          "name": "agentId",
          "type": "uint256"
        }
      ],
      "name": "incrementEndorsements",
      "outputs": [],
      "stateMutability": "nonpayable",
      "type": "function"
    },
    {
      "inputs": [
        {
          "internalType": "address",
          "name": "owner",
          "type": "address"
        },
        {
          "internalType": "address",
          "name": "operator",
          "type": "address"
        }
      ],
      "name": "isApprovedForAll",
      "outputs": [
        {
          "internalType": "bool",
          "name": "",
          "type": "bool"
        }
      ],
      "stateMutability": "view",
      "type": "function"
    },
    {
      "inputs": [],
      "name": "name",
      "outputs": [
        {
          "internalType": "string",
          "name": "",
          "type": "string"
        }
      ],
      "stateMutability": "view",
      "type": "function"
    },
    {
      "inputs": [],
      "name": "owner",
      "outputs": [
        {
          "internalType": "address",
          "name": "",
          "type": "address"
        }
      ],
      "stateMutability": "view",
      "type": "function"
    },
    {
      "inputs": [
        {
          "internalType": "uint256",
          "name": "tokenId",
          "type": "uint256"
        }
      ],
      "name": "ownerOf",
      "outputs": [
        {
          "internalType": "address",
          "name": "",
          "type": "address"
        }
      ],
      "stateMutability": "view",
      "type": "function"
    },
    {
      "inputs": [
        {
          "internalType": "uint256",
          "name": "agentId",
          "type": "uint256"
        },
        {
          "internalType": "uint256",
          "name": "clawEarned",
          "type": "uint256"
        }
      ],
      "name": "recordClaim",
      "outputs": [],
      "stateMutability": "nonpayable",
      "type": "function"
    },
    {
      "inputs": [
        {
          "internalType": "uint256",
          "name": "agentId",
          "type": "uint256"
        }
      ],
      "name": "recordInvalidCommit",
      "outputs": [],
      "stateMutability": "nonpayable",
      "type": "function"
    },
    {
      "inputs": [
        {
          "internalType": "uint256",
          "name": "agentId",
          "type": "uint256"
        }
      ],
      "name": "recordReveal",
      "outputs": [],
      "stateMutability": "nonpayable",
      "type": "function"
    },
    {
      "inputs": [],
      "name": "register",
      "outputs": [
        {
          "internalType": "uint256",
          "name": "agentId",
          "type": "uint256"
        }
      ],
      "stateMutability": "nonpayable",
      "type": "function"
    },
    {
      "inputs": [
        {
          "internalType": "address",
          "name": "wallet",
          "type": "address"
        }
      ],
      "name": "registerFor",
      "outputs": [
        {
          "internalType": "uint256",
          "name": "agentId",
          "type": "uint256"
        }
      ],
      "stateMutability": "nonpayable",
      "type": "function"
    },
    {
      "inputs": [
        {
          "internalType": "address",
          "name": "_protocol",
          "type": "address"
        }
      ],
      "name": "removeAuthorizedProtocol",
      "outputs": [],
      "stateMutability": "nonpayable",
      "type": "function"
    },
    {
      "inputs": [],
      "name": "renounceOwnership",
      "outputs": [],
      "stateMutability": "nonpayable",
      "type": "function"
    },
    {
      "inputs": [
        {
          "internalType": "address",
          "name": "from",
          "type": "address"
        },
        {
          "internalType": "address",
          "name": "to",
          "type": "address"
        },
        {
          "internalType": "uint256",
          "name": "tokenId",
          "type": "uint256"
        }
      ],
      "name": "safeTransferFrom",
      "outputs": [],
      "stateMutability": "nonpayable",
      "type": "function"
    },
    {
      "inputs": [
        {
          "internalType": "address",
          "name": "from",
          "type": "address"
        },
        {
          "internalType": "address",
          "name": "to",
          "type": "address"
        },
        {
          "internalType": "uint256",
          "name": "tokenId",
          "type": "uint256"
        },
        {
          "internalType": "bytes",
          "name": "data",
          "type": "bytes"
        }
      ],
      "name": "safeTransferFrom",
      "outputs": [],
      "stateMutability": "nonpayable",
      "type": "function"
    },
    {
      "inputs": [
        {
          "internalType": "address",
          "name": "operator",
          "type": "address"
        },
        {
          "internalType": "bool",
          "name": "approved",
          "type": "bool"
        }
      ],
      "name": "setApprovalForAll",
      "outputs": [],
      "stateMutability": "nonpayable",
      "type": "function"
    },
    {
      "inputs": [
        {
          "internalType": "bytes4",
          "name": "interfaceId",
          "type": "bytes4"
        }
      ],
      "name": "supportsInterface",
      "outputs": [
        {
          "internalType": "bool",
          "name": "",
          "type": "bool"
        }
      ],
      "stateMutability": "view",
      "type": "function"
    },
    {
      "inputs": [],
      "name": "symbol",
      "outputs": [
        {
          "internalType": "string",
          "name": "",
          "type": "string"
        }
      ],
      "stateMutability": "view",
      "type": "function"
    },
    {
      "inputs": [
        {
          "internalType": "uint256",
          "name": "tokenId",
          "type": "uint256"
        }
      ],
      "name": "tokenURI",
      "outputs": [
        {
          "internalType": "string",
          "name": "",
          "type": "string"
        }
      ],
      "stateMutability": "view",
      "type": "function"
    },
    {
      "inputs": [
        {
          "internalType": "address",
          "name": "from",
          "type": "address"
        },
        {
          "internalType": "address",
          "name": "to",
          "type": "address"
        },
        {
          "internalType": "uint256",
          "name": "tokenId",
          "type": "uint256"
        }
      ],
      "name": "transferFrom",
      "outputs": [],
      "stateMutability": "nonpayable",
      "type": "function"
    },
    {
      "inputs": [
        {
          "internalType": "address",
          "name": "newOwner",
          "type": "address"
        }
      ],
      "name": "transferOwnership",
      "outputs": [],
      "stateMutability": "nonpayable",
      "type": "function"
    }
  ],
  "bytecode": "0x60806040523461038b5761195f6020813803918261001c8161038f565b93849283398101031261038b57516001600160a01b0381169081900361038b57610046604061038f565b90600d82526c436c6177204964656e7469747960981b602083015261006b604061038f565b600681526510d31055d25160d21b602082015282519091906001600160401b03811161029f575f54600181811c91168015610381575b602082101461028157601f811161031f575b506020601f82116001146102be57819293945f926102b3575b50508160011b915f199060031b1c1916175f555b81516001600160401b03811161029f57600154600181811c91168015610295575b602082101461028157601f811161021e575b50602092601f82116001146101bd57928192935f926101b2575b50508160011b915f199060031b1c1916176001555b801561019f57600680546001600160a01b03198116831790915560405191906001600160a01b03167f8be0079c531659141344cd1fd0a4f28419497f9722a3daafe3b4186f6b6457e05f80a360016008556115aa90816103b58239f35b631e4fbdf760e01b5f525f60045260245ffd5b015190505f8061012d565b601f1982169360015f52805f20915f5b86811061020657508360019596106101ee575b505050811b01600155610142565b01515f1960f88460031b161c191690555f80806101e0565b919260206001819286850151815501940192016101cd565b60015f527fb10e2d527612073b26eecdfd717e6a320cf44b4afac2b0732d9fcbe2b7fa0cf6601f830160051c81019160208410610277575b601f0160051c01905b81811061026c5750610113565b5f815560010161025f565b9091508190610256565b634e487b7160e01b5f52602260045260245ffd5b90607f1690610101565b634e487b7160e01b5f52604160045260245ffd5b015190505f806100cc565b601f198216905f8052805f20915f5b818110610307575095836001959697106102ef575b505050811b015f556100e0565b01515f1960f88460031b161c191690555f80806102e2565b9192602060018192868b0151815501940192016102cd565b5f80527f290decd9548b62a8d60345a988386fc84ba6bc95484008f6362f93160ef3e563601f830160051c81019160208410610377575b601f0160051c01905b81811061036c57506100b3565b5f815560010161035f565b9091508190610356565b90607f16906100a1565b5f80fd5b6040519190601f01601f191682016001600160401b0381118382101761029f5760405256fe6080806040526004361015610012575f80fd5b5f905f3560e01c90816301ffc9a714610cf85750806306fdde0314610c40578063081812fc14610c04578063095ea7b314610b1a578063105a0de114610aa55780631aa3a00814610a5a5780631d6e020b146109e557806320842d5d1461096e57806323b872dd1461095757806340c340ec1461091a57806342842e0e146108eb57806348850b891461089357806356366029146108205780636352211e146107f057806370a082311461079f578063715018a61461074457806371a2f141146106df578063761bd33c1461069b5780637b303965146105bc5780638da5cb5b1461059457806395d89b411461048c578063a22cb465146103d8578063ac3c0e30146103a0578063b88d4fde1461030a578063c87b56dd146102ad578063dfd576f61461026c578063e30e383414610240578063e985e9c5146101e85763f2fde38b1461015d575f80fd5b346101e55760203660031901126101e557610176610d87565b61017e611429565b6001600160a01b031680156101d157600680546001600160a01b0319811683179091556001600160a01b03167f8be0079c531659141344cd1fd0a4f28419497f9722a3daafe3b4186f6b6457e05f80a380f35b631e4fbdf760e01b82526004829052602482fd5b80fd5b50346101e55760403660031901126101e5576040610204610d87565b9161020d610d9d565b9260018060a01b031681526005602052209060018060a01b03165f52602052602060ff60405f2054166040519015158152f35b50346101e55760203660031901126101e557602061026461025f610d87565b611147565b604051908152f35b50346101e55760203660031901126101e557610286610d87565b61028e611429565b6001600160a01b03168152600760205260408120805460ff1916905580f35b34610306576020366003190112610306576102c960043561118d565b505f6040516102d9602082610e1d565b526103026040516102eb602082610e1d565b5f8152604051918291602083526020830190610d63565b0390f35b5f80fd5b3461030657608036600319011261030657610323610d87565b61032b610d9d565b906044356064359267ffffffffffffffff841161030657366023850112156103065783600401359261035c84610e3f565b9361036a6040519586610e1d565b8085523660248288010111610306576020815f92602461039e99018389013786010152610398838383610e80565b33611450565b005b34610306576020366003190112610306576001600160a01b036103c1610d87565b165f52600a602052602060405f2054604051908152f35b34610306576040366003190112610306576103f1610d87565b60243590811515809203610306573315610479576001600160a01b031690811561046657335f52600560205260405f20825f5260205260405f2060ff1981541660ff83161790556040519081527f17307eab39ab6107e8899845ad3d59bd9653f200f220920489ca2b5937696c3160203392a3005b50630b61174360e31b5f5260045260245ffd5b63a9fbf51f60e01b5f525f60045260245ffd5b34610306575f366003190112610306576040515f6001548060011c9060018116801561058a575b6020831081146105765782855290811561055257506001146104f4575b610302836104e081850382610e1d565b604051918291602083526020830190610d63565b91905060015f527fb10e2d527612073b26eecdfd717e6a320cf44b4afac2b0732d9fcbe2b7fa0cf6915f905b808210610538575090915081016020016104e06104d0565b919260018160209254838588010152019101909291610520565b60ff191660208086019190915291151560051b840190910191506104e090506104d0565b634e487b7160e01b5f52602260045260245ffd5b91607f16916104b3565b34610306575f366003190112610306576006546040516001600160a01b039091168152602090f35b34610306576020366003190112610306576004355f60806040516105df81610ded565b8281528260208201528260408201528260608201520152805f52600260205260018060a01b0360405f2054161561068c575f52600960205260a060405f2060405161062981610ded565b63ffffffff825481808216948585528160208601818560201c168152608060016040890194848860401c1686528460608b019860601c16885201549701968752604051978852511660208701525116604085015251166060830152516080820152f35b63e93ba22360e01b5f5260045ffd5b34610306576020366003190112610306576106b4610d87565b6106bc611429565b6001600160a01b03165f908152600760205260409020805460ff19166001179055005b34610306576020366003190112610306576004356106fb6111c1565b5f818152600260205260409020546001600160a01b03161561068c575f52600960205260405f20805463ffffffff610734818316610e5b565b63ffffffff199092169116179055005b34610306575f3660031901126103065761075c611429565b600680546001600160a01b031981169091555f906001600160a01b03167f8be0079c531659141344cd1fd0a4f28419497f9722a3daafe3b4186f6b6457e08280a3005b34610306576020366003190112610306576001600160a01b036107c0610d87565b1680156107dd575f526003602052602060405f2054604051908152f35b6322718ad960e21b5f525f60045260245ffd5b3461030657602036600319011261030657602061080e60043561118d565b6040516001600160a01b039091168152f35b346103065760403660031901126103065760243560043561083f6111c1565b5f818152600260205260409020546001600160a01b03161561068c578161086257005b5f526009602052600160405f2001805491820180921161087f5755005b634e487b7160e01b5f52601160045260245ffd5b346103065760203660031901126103065760c063ffffffff80806108bd6108b8610d87565b611057565b95929193836040999296995199168952166020880152166040860152606085015260808401521660a0820152f35b346103065761039e6108fc36610db3565b906040519261090c602085610e1d565b5f8452610398838383610e80565b34610306576020366003190112610306576001600160a01b0361093b610d87565b165f526007602052602060ff60405f2054166040519015158152f35b346103065761039e61096836610db3565b91610e80565b346103065760203660031901126103065760043561098a6111c1565b5f818152600260205260409020546001600160a01b03161561068c575f52600960205260405f20805467ffffffff000000006109ce63ffffffff8360201c16610e5b565b60201b169067ffffffff0000000019161790555f80f35b3461030657602036600319011261030657600435610a016111c1565b5f818152600260205260409020546001600160a01b03161561068c575f52600960205260405f20805463ffffffff60401b610a4463ffffffff8360401c16610e5b565b60401b169063ffffffff60401b19161790555f80f35b34610306575f36600319011261030657335f52600a60205260405f2054610a96576020600854610a8981610e72565b60085561026481336111e7565b630ea075bf60e21b5f5260045ffd5b3461030657602036600319011261030657600435610ac16111c1565b5f818152600260205260409020546001600160a01b03161561068c575f52600960205260405f20805463ffffffff60601b610b0463ffffffff8360601c16610e5b565b60601b1663ffffffff60601b1991909116179055005b3461030657604036600319011261030657610b33610d87565b602435610b3f8161118d565b33151580610bf1575b80610bc4575b610bb15781906001600160a01b0384811691167f8c5be1e5ebec7d5bd14f71427d1e84f3dd0314c0f7b2291e5b200ac8c7c3b9255f80a45f90815260046020526040902080546001600160a01b0319166001600160a01b03909216919091179055005b63a9fbf51f60e01b5f523360045260245ffd5b506001600160a01b0381165f90815260056020908152604080832033845290915290205460ff1615610b4e565b506001600160a01b038116331415610b48565b3461030657602036600319011261030657600435610c218161118d565b505f526004602052602060018060a01b0360405f205416604051908152f35b34610306575f366003190112610306576040515f5f548060011c90600181168015610cee575b602083108114610576578285529081156105525750600114610c9257610302836104e081850382610e1d565b5f8080527f290decd9548b62a8d60345a988386fc84ba6bc95484008f6362f93160ef3e563939250905b808210610cd4575090915081016020016104e06104d0565b919260018160209254838588010152019101909291610cbc565b91607f1691610c66565b34610306576020366003190112610306576004359063ffffffff60e01b8216809203610306576020916380ac58cd60e01b8114908115610d52575b8115610d41575b5015158152f35b6301ffc9a760e01b14905083610d3a565b635b5e139f60e01b81149150610d33565b805180835260209291819084018484015e5f828201840152601f01601f1916010190565b600435906001600160a01b038216820361030657565b602435906001600160a01b038216820361030657565b6060906003190112610306576004356001600160a01b038116810361030657906024356001600160a01b0381168103610306579060443590565b60a0810190811067ffffffffffffffff821117610e0957604052565b634e487b7160e01b5f52604160045260245ffd5b90601f8019910116810190811067ffffffffffffffff821117610e0957604052565b67ffffffffffffffff8111610e0957601f01601f191660200190565b63ffffffff1663ffffffff811461087f5760010190565b5f19811461087f5760010190565b6001600160a01b0390911691908215611044575f828152600260205260409020546001600160a01b03169233151580610fb4575b5083151580610f81575b815f52600360205260405f2060018154019055835f52600260205260405f20826bffffffffffffffffffffffff60a01b8254161790558382867fddf252ad1be2c89b69c2b068fc378daa952ba7f163c4a11628f55a4df523b3ef5f80a4610f6e575b805f52600a60205260405f2054610a96575f908152600a602052604090208290556001600160a01b0316808303610f5657505050565b6364283d7b60e01b5f5260045260245260445260645ffd5b835f52600a6020525f6040812055610f20565b5f84815260046020526040902080546001600160a01b0319169055845f52600360205260405f205f198154019055610ebe565b80610ff3575b15610fc5575f610eb4565b8284610fdd57637e27328960e01b5f5260045260245ffd5b63177e802f60e01b5f523360045260245260445ffd5b503384148015611022575b80610fba57505f838152600460205260409020546001600160a01b03163314610fba565b505f84815260056020908152604080832033845290915290205460ff16610ffe565b633250574960e11b5f525f60045260245ffd5b6001600160a01b03165f908152600a60205260409020548015611138575f52600960205260405f206040519161108c83610ded565b81549063ffffffff82169182855263ffffffff8160201c1691826020870152600163ffffffff8360401c169586604089015263ffffffff606089019460601c16845201549260808701938452849681969515155f1461112b57612710820291808304612710149015171561087f575163ffffffff1680156111175763ffffffff91045b935192511690565b634e487b7160e01b5f52601260045260245ffd5b505063ffffffff5f61110f565b505f905f905f905f905f905f90565b906111506111c1565b6001600160a01b0382165f908152600a6020526040902054806111895750611187600854809361117f82610e72565b6008556111e7565b565b9150565b5f818152600260205260409020546001600160a01b03169081156111af575090565b637e27328960e01b5f5260045260245ffd5b335f52600760205260ff60405f205416156111d857565b63626534b760e01b5f5260045ffd5b90602090604051906111f98383610e1d565b5f82526001600160a01b038416938415611044575f8281526002855260409020546001600160a01b031680151590816113f8575b865f526003865260405f2060018154019055835f526002865260405f20876bffffffffffffffffffffffff60a01b8254161790558387827fddf252ad1be2c89b69c2b068fc378daa952ba7f163c4a11628f55a4df523b3ef5f80a4816113e6575b50855f52600a855260405f2054610a9657855f52600a85528260405f20556113d3573b6112bc575b50505050565b916112f991819495936040519384928392630a85bd0160e11b84523360048501525f60248501526044840152608060648401526084830190610d63565b03815f885af15f9181611393575b5061135c5750503d15611354573d9061131f82610e3f565b9161132d6040519384610e1d565b82523d5f8284013e5b815191826113515783633250574960e11b5f5260045260245ffd5b01fd5b606090611336565b909291506001600160e01b03191663757a42ff60e11b0161138157505f8080806112b6565b633250574960e11b5f5260045260245ffd5b9091508381813d83116113cc575b6113ab8183610e1d565b8101031261030657516001600160e01b03198116810361030657905f611307565b503d6113a1565b6339e3563760e11b5f525f60045260245ffd5b5f52600a85525f60408120555f61128e565b5f8481526004602052604080822080546001600160a01b031916905582825260038852902080545f1901905561122d565b6006546001600160a01b0316330361143d57565b63118cdaa760e01b5f523360045260245ffd5b823b61145e575b5050505050565b604051630a85bd0160e11b81526001600160a01b0391821660048201529181166024830152604482019390935260806064820152911691602090829081906114aa906084830190610d63565b03815f865af15f918161152f575b5061150d57503d15611506573d6114ce81610e3f565b906114dc6040519283610e1d565b81523d5f602083013e5b805190816115015782633250574960e11b5f5260045260245ffd5b602001fd5b60606114e6565b6001600160e01b03191663757a42ff60e11b0161138157505f80808080611457565b9091506020813d60201161156c575b8161154b60209383610e1d565b8101031261030657516001600160e01b03198116810361030657905f6114b8565b3d915061153e56fea264697066735822122067001e445349f382ffce115de54e3e5c8c2c5859359ff6e5686ab8fe24e0736164736f6c634300081c0033",
  "linkReferences": {},
  "deployedLinkReferences": {},
  "immutableReferences": {},
  "inputSourceName": "project/contracts/ClawIdentity.sol",
  "buildInfoId": "solc-0_8_28-06400c6d725ac8ddd7c6cf3137437d42c7cc69b4"
}