{
  "_format": "hh3-artifact-1",
  "contractName": "ClawCore",
  "sourceName": "contracts/ClawCore.sol",
  "abi": [
    {
      "inputs": [
        {
          "internalType": "address",
          "name": "initialOwner",
          "type": "address"
        },
        {
          "internalType": "address",
          "name": "_usdtToken",
          "type": "address"
        },
        {
          "internalType": "address",
          "name": "_negRiskAdapter",
          "type": "address"
        },
        {
          "internalType": "address",
          "name": "_ctf",
          "type": "address"
        },
        {
          "internalType": "address",
          "name": "_swapRouter",
          "type": "address"
        },
        {
          "internalType": "address",
          "name": "_lpRouter",
          "type": "address"
        },
        {
          "internalType": "address",
          "name": "_commitVerifier",
          "type": "address"
        },
        {
          "internalType": "address",
          "name": "_poseidon6",
          "type": "address"
        },
        {
          "internalType": "address",
          "name": "_clawMinerIdentity",
          "type": "address"
        }
      ],
      "stateMutability": "nonpayable",
      "type": "constructor"
    },
    {
      "inputs": [],
      "name": "AlreadyClaimed",
      "type": "error"
    },
    {
      "inputs": [],
      "name": "AlreadyCommitted",
      "type": "error"
    },
    {
      "inputs": [],
      "name": "AlreadyProven",
      "type": "error"
    },
    {
      "inputs": [],
      "name": "AlreadyRevealed",
      "type": "error"
    },
    {
      "inputs": [],
      "name": "CommitWindowClosed",
      "type": "error"
    },
    {
      "inputs": [],
      "name": "CommitWindowStillOpen",
      "type": "error"
    },
    {
      "inputs": [],
      "name": "ContractPaused",
      "type": "error"
    },
    {
      "inputs": [],
      "name": "HasWinners",
      "type": "error"
    },
    {
      "inputs": [],
      "name": "HashMismatch",
      "type": "error"
    },
    {
      "inputs": [],
      "name": "InsufficientCommits",
      "type": "error"
    },
    {
      "inputs": [],
      "name": "InsufficientWinRate",
      "type": "error"
    },
    {
      "inputs": [],
      "name": "InvalidAmount",
      "type": "error"
    },
    {
      "inputs": [],
      "name": "InvalidOutcomeIndex",
      "type": "error"
    },
    {
      "inputs": [],
      "name": "InvalidProof",
      "type": "error"
    },
    {
      "inputs": [],
      "name": "InvalidQuestionIndex",
      "type": "error"
    },
    {
      "inputs": [],
      "name": "InvalidTime",
      "type": "error"
    },
    {
      "inputs": [],
      "name": "MarketNotDetermined",
      "type": "error"
    },
    {
      "inputs": [],
      "name": "MinMinersNotReached",
      "type": "error"
    },
    {
      "inputs": [],
      "name": "NoBountyLeft",
      "type": "error"
    },
    {
      "inputs": [],
      "name": "NotCommitted",
      "type": "error"
    },
    {
      "inputs": [],
      "name": "NotCreator",
      "type": "error"
    },
    {
      "inputs": [],
      "name": "NotRegistered",
      "type": "error"
    },
    {
      "inputs": [
        {
          "internalType": "address",
          "name": "owner",
          "type": "address"
        }
      ],
      "name": "OwnableInvalidOwner",
      "type": "error"
    },
    {
      "inputs": [
        {
          "internalType": "address",
          "name": "account",
          "type": "address"
        }
      ],
      "name": "OwnableUnauthorizedAccount",
      "type": "error"
    },
    {
      "inputs": [],
      "name": "ReentrancyGuardReentrantCall",
      "type": "error"
    },
    {
      "inputs": [],
      "name": "RevealWindowClosed",
      "type": "error"
    },
    {
      "inputs": [],
      "name": "RevealWindowOpen",
      "type": "error"
    },
    {
      "inputs": [
        {
          "internalType": "address",
          "name": "spender",
          "type": "address"
        },
        {
          "internalType": "uint256",
          "name": "currentAllowance",
          "type": "uint256"
        },
        {
          "internalType": "uint256",
          "name": "requestedDecrease",
          "type": "uint256"
        }
      ],
      "name": "SafeERC20FailedDecreaseAllowance",
      "type": "error"
    },
    {
      "inputs": [
        {
          "internalType": "address",
          "name": "token",
          "type": "address"
        }
      ],
      "name": "SafeERC20FailedOperation",
      "type": "error"
    },
    {
      "inputs": [],
      "name": "TaskFull",
      "type": "error"
    },
    {
      "inputs": [],
      "name": "TaskNotResolved",
      "type": "error"
    },
    {
      "inputs": [],
      "name": "TooManyInvalidCommits",
      "type": "error"
    },
    {
      "inputs": [],
      "name": "ZeroAddress",
      "type": "error"
    },
    {
      "anonymous": false,
      "inputs": [
        {
          "indexed": true,
          "internalType": "uint256",
          "name": "taskId",
          "type": "uint256"
        },
        {
          "indexed": false,
          "internalType": "address",
          "name": "bountyToken",
          "type": "address"
        },
        {
          "indexed": false,
          "internalType": "uint256",
          "name": "tokenAmount",
          "type": "uint256"
        },
        {
          "indexed": false,
          "internalType": "uint256",
          "name": "clawAmount",
          "type": "uint256"
        }
      ],
      "name": "AutoLPSettled",
      "type": "event"
    },
    {
      "anonymous": false,
      "inputs": [
        {
          "indexed": true,
          "internalType": "uint256",
          "name": "taskId",
          "type": "uint256"
        },
        {
          "indexed": true,
          "internalType": "address",
          "name": "creator",
          "type": "address"
        },
        {
          "indexed": false,
          "internalType": "address",
          "name": "bountyToken",
          "type": "address"
        },
        {
          "indexed": false,
          "internalType": "uint256",
          "name": "tokenRefunded",
          "type": "uint256"
        }
      ],
      "name": "CreatorRefunded",
      "type": "event"
    },
    {
      "anonymous": false,
      "inputs": [
        {
          "indexed": true,
          "internalType": "address",
          "name": "previousOwner",
          "type": "address"
        },
        {
          "indexed": true,
          "internalType": "address",
          "name": "newOwner",
          "type": "address"
        }
      ],
      "name": "OwnershipTransferred",
      "type": "event"
    },
    {
      "anonymous": false,
      "inputs": [
        {
          "indexed": true,
          "internalType": "uint256",
          "name": "taskId",
          "type": "uint256"
        },
        {
          "indexed": true,
          "internalType": "address",
          "name": "token",
          "type": "address"
        },
        {
          "indexed": false,
          "internalType": "uint256",
          "name": "amount",
          "type": "uint256"
        }
      ],
      "name": "ProtocolFeeCollected",
      "type": "event"
    },
    {
      "anonymous": false,
      "inputs": [
        {
          "indexed": true,
          "internalType": "uint256",
          "name": "taskId",
          "type": "uint256"
        },
        {
          "indexed": true,
          "internalType": "address",
          "name": "miner",
          "type": "address"
        },
        {
          "indexed": true,
          "internalType": "uint256",
          "name": "agentId",
          "type": "uint256"
        },
        {
          "indexed": false,
          "internalType": "bool",
          "name": "isWinner",
          "type": "bool"
        },
        {
          "indexed": false,
          "internalType": "uint256",
          "name": "tokenReward",
          "type": "uint256"
        },
        {
          "indexed": false,
          "internalType": "uint256",
          "name": "clawReward",
          "type": "uint256"
        }
      ],
      "name": "RewardClaimed",
      "type": "event"
    },
    {
      "anonymous": false,
      "inputs": [
        {
          "indexed": true,
          "internalType": "uint256",
          "name": "taskId",
          "type": "uint256"
        },
        {
          "indexed": true,
          "internalType": "address",
          "name": "miner",
          "type": "address"
        },
        {
          "indexed": true,
          "internalType": "uint256",
          "name": "agentId",
          "type": "uint256"
        },
        {
          "indexed": false,
          "internalType": "uint256",
          "name": "ephPubX",
          "type": "uint256"
        },
        {
          "indexed": false,
          "internalType": "uint256",
          "name": "ephPubY",
          "type": "uint256"
        },
        {
          "indexed": false,
          "internalType": "uint256",
          "name": "commitHash",
          "type": "uint256"
        },
        {
          "indexed": false,
          "internalType": "uint256",
          "name": "cipher0",
          "type": "uint256"
        },
        {
          "indexed": false,
          "internalType": "uint256",
          "name": "cipher1",
          "type": "uint256"
        }
      ],
      "name": "TaskCommitted",
      "type": "event"
    },
    {
      "anonymous": false,
      "inputs": [
        {
          "indexed": true,
          "internalType": "uint256",
          "name": "taskId",
          "type": "uint256"
        },
        {
          "indexed": true,
          "internalType": "address",
          "name": "creator",
          "type": "address"
        },
        {
          "indexed": true,
          "internalType": "bytes32",
          "name": "targetId",
          "type": "bytes32"
        },
        {
          "indexed": false,
          "internalType": "bool",
          "name": "isNegRisk",
          "type": "bool"
        },
        {
          "indexed": false,
          "internalType": "address",
          "name": "bountyToken",
          "type": "address"
        },
        {
          "indexed": false,
          "internalType": "uint256",
          "name": "bountyAmount",
          "type": "uint256"
        },
        {
          "indexed": false,
          "internalType": "uint256",
          "name": "creatorPubKeyX",
          "type": "uint256"
        },
        {
          "indexed": false,
          "internalType": "uint256",
          "name": "creatorPubKeyY",
          "type": "uint256"
        },
        {
          "indexed": false,
          "internalType": "bytes",
          "name": "creatorPubKey",
          "type": "bytes"
        }
      ],
      "name": "TaskCreated",
      "type": "event"
    },
    {
      "anonymous": false,
      "inputs": [
        {
          "indexed": true,
          "internalType": "uint256",
          "name": "taskId",
          "type": "uint256"
        },
        {
          "indexed": false,
          "internalType": "uint40",
          "name": "revealEndTime",
          "type": "uint40"
        }
      ],
      "name": "TaskRevealOpened",
      "type": "event"
    },
    {
      "anonymous": false,
      "inputs": [
        {
          "indexed": true,
          "internalType": "uint256",
          "name": "taskId",
          "type": "uint256"
        },
        {
          "indexed": true,
          "internalType": "address",
          "name": "miner",
          "type": "address"
        },
        {
          "indexed": true,
          "internalType": "uint256",
          "name": "agentId",
          "type": "uint256"
        },
        {
          "indexed": false,
          "internalType": "bytes32",
          "name": "conditionId",
          "type": "bytes32"
        },
        {
          "indexed": false,
          "internalType": "uint8",
          "name": "questionIndex",
          "type": "uint8"
        },
        {
          "indexed": false,
          "internalType": "uint8",
          "name": "outcomeIndex",
          "type": "uint8"
        }
      ],
      "name": "TaskRevealed",
      "type": "event"
    },
    {
      "anonymous": false,
      "inputs": [
        {
          "indexed": true,
          "internalType": "uint256",
          "name": "taskId",
          "type": "uint256"
        },
        {
          "indexed": true,
          "internalType": "bytes32",
          "name": "targetId",
          "type": "bytes32"
        },
        {
          "indexed": false,
          "internalType": "uint256",
          "name": "totalCorrectYes",
          "type": "uint256"
        },
        {
          "indexed": false,
          "internalType": "uint256",
          "name": "totalCorrectNo",
          "type": "uint256"
        },
        {
          "indexed": false,
          "internalType": "uint256",
          "name": "settledNetBounty",
          "type": "uint256"
        }
      ],
      "name": "TaskSettled",
      "type": "event"
    },
    {
      "inputs": [],
      "name": "BPS_DENOMINATOR",
      "outputs": [
        {
          "internalType": "uint256",
          "name": "",
          "type": "uint256"
        }
      ],
      "stateMutability": "view",
      "type": "function"
    },
    {
      "inputs": [],
      "name": "REVEAL_WINDOW",
      "outputs": [
        {
          "internalType": "uint40",
          "name": "",
          "type": "uint40"
        }
      ],
      "stateMutability": "view",
      "type": "function"
    },
    {
      "inputs": [],
      "name": "SNARK_SCALAR_FIELD",
      "outputs": [
        {
          "internalType": "uint256",
          "name": "",
          "type": "uint256"
        }
      ],
      "stateMutability": "view",
      "type": "function"
    },
    {
      "inputs": [],
      "name": "autoLpFeeBps",
      "outputs": [
        {
          "internalType": "uint256",
          "name": "",
          "type": "uint256"
        }
      ],
      "stateMutability": "view",
      "type": "function"
    },
    {
      "inputs": [
        {
          "internalType": "uint256",
          "name": "taskId",
          "type": "uint256"
        }
      ],
      "name": "claimReward",
      "outputs": [],
      "stateMutability": "nonpayable",
      "type": "function"
    },
    {
      "inputs": [],
      "name": "clawToken",
      "outputs": [
        {
          "internalType": "contract IClawToken",
          "name": "",
          "type": "address"
        }
      ],
      "stateMutability": "view",
      "type": "function"
    },
    {
      "inputs": [
        {
          "internalType": "uint256",
          "name": "taskId",
          "type": "uint256"
        },
        {
          "internalType": "uint256",
          "name": "commitHash",
          "type": "uint256"
        },
        {
          "internalType": "uint256",
          "name": "ephPubX",
          "type": "uint256"
        },
        {
          "internalType": "uint256",
          "name": "ephPubY",
          "type": "uint256"
        },
        {
          "internalType": "uint256",
          "name": "cipher0",
          "type": "uint256"
        },
        {
          "internalType": "uint256",
          "name": "cipher1",
          "type": "uint256"
        },
        {
          "internalType": "uint256[2]",
          "name": "pA",
          "type": "uint256[2]"
        },
        {
          "internalType": "uint256[2][2]",
          "name": "pB",
          "type": "uint256[2][2]"
        },
        {
          "internalType": "uint256[2]",
          "name": "pC",
          "type": "uint256[2]"
        },
        {
          "internalType": "uint256[10]",
          "name": "pubSignals",
          "type": "uint256[10]"
        }
      ],
      "name": "commitTask",
      "outputs": [],
      "stateMutability": "nonpayable",
      "type": "function"
    },
    {
      "inputs": [],
      "name": "commitVerifier",
      "outputs": [
        {
          "internalType": "contract CommitVerifier",
          "name": "",
          "type": "address"
        }
      ],
      "stateMutability": "view",
      "type": "function"
    },
    {
      "inputs": [
        {
          "internalType": "bytes32",
          "name": "targetId",
          "type": "bytes32"
        },
        {
          "internalType": "bool",
          "name": "isNegRisk",
          "type": "bool"
        },
        {
          "internalType": "address",
          "name": "bountyToken",
          "type": "address"
        },
        {
          "internalType": "uint40",
          "name": "commitEndTime",
          "type": "uint40"
        },
        {
          "internalType": "uint32",
          "name": "maxMiners",
          "type": "uint32"
        },
        {
          "internalType": "uint32",
          "name": "minMiners",
          "type": "uint32"
        },
        {
          "internalType": "uint32",
          "name": "minCommits",
          "type": "uint32"
        },
        {
          "internalType": "uint16",
          "name": "minWinRateBps",
          "type": "uint16"
        },
        {
          "internalType": "uint256",
          "name": "requiredStake",
          "type": "uint256"
        },
        {
          "internalType": "uint256",
          "name": "bountyAmount",
          "type": "uint256"
        },
        {
          "internalType": "uint8",
          "name": "maxInvalidCommits",
          "type": "uint8"
        },
        {
          "internalType": "uint256",
          "name": "creatorPubKeyX",
          "type": "uint256"
        },
        {
          "internalType": "uint256",
          "name": "creatorPubKeyY",
          "type": "uint256"
        },
        {
          "internalType": "bytes",
          "name": "creatorPubKey",
          "type": "bytes"
        }
      ],
      "name": "createTask",
      "outputs": [
        {
          "internalType": "uint256",
          "name": "taskId",
          "type": "uint256"
        }
      ],
      "stateMutability": "nonpayable",
      "type": "function"
    },
    {
      "inputs": [
        {
          "internalType": "uint256",
          "name": "taskId",
          "type": "uint256"
        },
        {
          "internalType": "uint256[]",
          "name": "agentIds",
          "type": "uint256[]"
        },
        {
          "internalType": "uint8[]",
          "name": "questionIndices",
          "type": "uint8[]"
        },
        {
          "internalType": "uint8[]",
          "name": "outcomeIndices",
          "type": "uint8[]"
        },
        {
          "internalType": "uint256[]",
          "name": "salts",
          "type": "uint256[]"
        }
      ],
      "name": "creatorProveAllLost",
      "outputs": [],
      "stateMutability": "nonpayable",
      "type": "function"
    },
    {
      "inputs": [],
      "name": "ctf",
      "outputs": [
        {
          "internalType": "contract ICTF",
          "name": "",
          "type": "address"
        }
      ],
      "stateMutability": "view",
      "type": "function"
    },
    {
      "inputs": [],
      "name": "getCurrentEmissionRate",
      "outputs": [
        {
          "internalType": "uint256",
          "name": "",
          "type": "uint256"
        }
      ],
      "stateMutability": "view",
      "type": "function"
    },
    {
      "inputs": [],
      "name": "identity",
      "outputs": [
        {
          "internalType": "contract IClawIdentity",
          "name": "",
          "type": "address"
        }
      ],
      "stateMutability": "view",
      "type": "function"
    },
    {
      "inputs": [],
      "name": "lpRouter",
      "outputs": [
        {
          "internalType": "contract ILPRouter",
          "name": "",
          "type": "address"
        }
      ],
      "stateMutability": "view",
      "type": "function"
    },
    {
      "inputs": [],
      "name": "minedFromPool",
      "outputs": [
        {
          "internalType": "uint256",
          "name": "",
          "type": "uint256"
        }
      ],
      "stateMutability": "view",
      "type": "function"
    },
    {
      "inputs": [
        {
          "internalType": "uint256",
          "name": "",
          "type": "uint256"
        },
        {
          "internalType": "uint256",
          "name": "",
          "type": "uint256"
        }
      ],
      "name": "minerTaskStates",
      "outputs": [
        {
          "internalType": "uint256",
          "name": "commitHash",
          "type": "uint256"
        },
        {
          "internalType": "address",
          "name": "committerAddress",
          "type": "address"
        },
        {
          "internalType": "bool",
          "name": "hasCommitted",
          "type": "bool"
        },
        {
          "internalType": "bool",
          "name": "hasRevealed",
          "type": "bool"
        },
        {
          "internalType": "bool",
          "name": "hasClaimed",
          "type": "bool"
        },
        {
          "internalType": "uint8",
          "name": "revealedOutcome",
          "type": "uint8"
        },
        {
          "internalType": "uint8",
          "name": "revealedQuestionIndex",
          "type": "uint8"
        },
        {
          "internalType": "bool",
          "name": "provenLost",
          "type": "bool"
        }
      ],
      "stateMutability": "view",
      "type": "function"
    },
    {
      "inputs": [],
      "name": "negRiskAdapter",
      "outputs": [
        {
          "internalType": "contract INegRiskAdapter",
          "name": "",
          "type": "address"
        }
      ],
      "stateMutability": "view",
      "type": "function"
    },
    {
      "inputs": [],
      "name": "nextTaskId",
      "outputs": [
        {
          "internalType": "uint256",
          "name": "",
          "type": "uint256"
        }
      ],
      "stateMutability": "view",
      "type": "function"
    },
    {
      "inputs": [],
      "name": "owner",
      "outputs": [
        {
          "internalType": "address",
          "name": "",
          "type": "address"
        }
      ],
      "stateMutability": "view",
      "type": "function"
    },
    {
      "inputs": [],
      "name": "paused",
      "outputs": [
        {
          "internalType": "bool",
          "name": "",
          "type": "bool"
        }
      ],
      "stateMutability": "view",
      "type": "function"
    },
    {
      "inputs": [],
      "name": "poseidon6",
      "outputs": [
        {
          "internalType": "contract IPoseidon6",
          "name": "",
          "type": "address"
        }
      ],
      "stateMutability": "view",
      "type": "function"
    },
    {
      "inputs": [],
      "name": "protocolFeeBps",
      "outputs": [
        {
          "internalType": "uint256",
          "name": "",
          "type": "uint256"
        }
      ],
      "stateMutability": "view",
      "type": "function"
    },
    {
      "inputs": [],
      "name": "protocolTreasury",
      "outputs": [
        {
          "internalType": "address",
          "name": "",
          "type": "address"
        }
      ],
      "stateMutability": "view",
      "type": "function"
    },
    {
      "inputs": [
        {
          "internalType": "uint256",
          "name": "taskId",
          "type": "uint256"
        }
      ],
      "name": "refundCreator",
      "outputs": [],
      "stateMutability": "nonpayable",
      "type": "function"
    },
    {
      "inputs": [],
      "name": "renounceOwnership",
      "outputs": [],
      "stateMutability": "nonpayable",
      "type": "function"
    },
    {
      "inputs": [
        {
          "internalType": "uint256",
          "name": "taskId",
          "type": "uint256"
        },
        {
          "internalType": "uint8",
          "name": "questionIndex",
          "type": "uint8"
        },
        {
          "internalType": "uint8",
          "name": "outcomeIndex",
          "type": "uint8"
        },
        {
          "internalType": "uint256",
          "name": "salt",
          "type": "uint256"
        }
      ],
      "name": "revealPrediction",
      "outputs": [],
      "stateMutability": "nonpayable",
      "type": "function"
    },
    {
      "inputs": [
        {
          "internalType": "uint256",
          "name": "_newFeeBips",
          "type": "uint256"
        }
      ],
      "name": "setAutoLpFeeBps",
      "outputs": [],
      "stateMutability": "nonpayable",
      "type": "function"
    },
    {
      "inputs": [
        {
          "internalType": "bool",
          "name": "_paused",
          "type": "bool"
        }
      ],
      "name": "setPaused",
      "outputs": [],
      "stateMutability": "nonpayable",
      "type": "function"
    },
    {
      "inputs": [
        {
          "internalType": "uint256",
          "name": "_newFeeBips",
          "type": "uint256"
        }
      ],
      "name": "setProtocolFeeBps",
      "outputs": [],
      "stateMutability": "nonpayable",
      "type": "function"
    },
    {
      "inputs": [
        {
          "internalType": "address",
          "name": "_newTreasury",
          "type": "address"
        }
      ],
      "name": "setProtocolTreasury",
      "outputs": [],
      "stateMutability": "nonpayable",
      "type": "function"
    },
    {
      "inputs": [
        {
          "internalType": "uint256",
          "name": "_newSwapMinOutBps",
          "type": "uint256"
        }
      ],
      "name": "setSwapMinOutBps",
      "outputs": [],
      "stateMutability": "nonpayable",
      "type": "function"
    },
    {
      "inputs": [
        {
          "internalType": "address",
          "name": "token",
          "type": "address"
        },
        {
          "internalType": "bool",
          "name": "isWhitelisted",
          "type": "bool"
        },
        {
          "internalType": "uint24",
          "name": "poolFee",
          "type": "uint24"
        }
      ],
      "name": "setWhitelistToken",
      "outputs": [],
      "stateMutability": "nonpayable",
      "type": "function"
    },
    {
      "inputs": [],
      "name": "swapMinOutBps",
      "outputs": [
        {
          "internalType": "uint256",
          "name": "",
          "type": "uint256"
        }
      ],
      "stateMutability": "view",
      "type": "function"
    },
    {
      "inputs": [],
      "name": "swapRouter",
      "outputs": [
        {
          "internalType": "contract ISwapRouterV3",
          "name": "",
          "type": "address"
        }
      ],
      "stateMutability": "view",
      "type": "function"
    },
    {
      "inputs": [
        {
          "internalType": "uint256",
          "name": "",
          "type": "uint256"
        }
      ],
      "name": "tasks",
      "outputs": [
        {
          "internalType": "address",
          "name": "creator",
          "type": "address"
        },
        {
          "internalType": "uint40",
          "name": "commitEndTime",
          "type": "uint40"
        },
        {
          "internalType": "uint40",
          "name": "revealEndTime",
          "type": "uint40"
        },
        {
          "internalType": "bool",
          "name": "isResolved",
          "type": "bool"
        },
        {
          "internalType": "bytes32",
          "name": "targetId",
          "type": "bytes32"
        },
        {
          "internalType": "address",
          "name": "bountyToken",
          "type": "address"
        },
        {
          "internalType": "uint32",
          "name": "maxMiners",
          "type": "uint32"
        },
        {
          "internalType": "uint32",
          "name": "minMiners",
          "type": "uint32"
        },
        {
          "internalType": "uint32",
          "name": "minCommits",
          "type": "uint32"
        },
        {
          "internalType": "uint32",
          "name": "currentMiners",
          "type": "uint32"
        },
        {
          "internalType": "uint32",
          "name": "totalRevealed",
          "type": "uint32"
        },
        {
          "internalType": "uint32",
          "name": "totalCorrectYes",
          "type": "uint32"
        },
        {
          "internalType": "uint32",
          "name": "totalCorrectNo",
          "type": "uint32"
        },
        {
          "internalType": "uint16",
          "name": "minWinRateBps",
          "type": "uint16"
        },
        {
          "internalType": "uint16",
          "name": "settledEmissionRate",
          "type": "uint16"
        },
        {
          "internalType": "uint16",
          "name": "snapshotProtocolFeeBps",
          "type": "uint16"
        },
        {
          "internalType": "uint16",
          "name": "snapshotAutoLpFeeBps",
          "type": "uint16"
        },
        {
          "internalType": "uint8",
          "name": "maxInvalidCommits",
          "type": "uint8"
        },
        {
          "internalType": "bool",
          "name": "fundsSettled",
          "type": "bool"
        },
        {
          "internalType": "bool",
          "name": "isWhitelistedToken",
          "type": "bool"
        },
        {
          "internalType": "bool",
          "name": "isNegRisk",
          "type": "bool"
        },
        {
          "internalType": "uint32",
          "name": "provenLostCount",
          "type": "uint32"
        },
        {
          "internalType": "uint128",
          "name": "bountyAmount",
          "type": "uint128"
        },
        {
          "internalType": "uint128",
          "name": "requiredStake",
          "type": "uint128"
        },
        {
          "internalType": "uint128",
          "name": "settledNetBounty",
          "type": "uint128"
        },
        {
          "internalType": "uint128",
          "name": "settledMinerClawOutput",
          "type": "uint128"
        },
        {
          "internalType": "uint256",
          "name": "creatorPubKeyX",
          "type": "uint256"
        },
        {
          "internalType": "uint256",
          "name": "creatorPubKeyY",
          "type": "uint256"
        },
        {
          "internalType": "uint256",
          "name": "questionCount",
          "type": "uint256"
        }
      ],
      "stateMutability": "view",
      "type": "function"
    },
    {
      "inputs": [
        {
          "internalType": "address",
          "name": "newMinter",
          "type": "address"
        }
      ],
      "name": "transferClawMinter",
      "outputs": [],
      "stateMutability": "nonpayable",
      "type": "function"
    },
    {
      "inputs": [
        {
          "internalType": "address",
          "name": "newOwner",
          "type": "address"
        }
      ],
      "name": "transferOwnership",
      "outputs": [],
      "stateMutability": "nonpayable",
      "type": "function"
    },
    {
      "inputs": [],
      "name": "usdtToken",
      "outputs": [
        {
          "internalType": "contract IERC20",
          "name": "",
          "type": "address"
        }
      ],
      "stateMutability": "view",
      "type": "function"
    },
    {
      "inputs": [],
      "name": "v3Factory",
      "outputs": [
        {
          "internalType": "contract IUniswapV3Factory",
          "name": "",
          "type": "address"
        }
      ],
      "stateMutability": "view",
      "type": "function"
    },
    {
      "inputs": [
        {
          "internalType": "address",
          "name": "",
          "type": "address"
        }
      ],
      "name": "whitelistConfigs",
      "outputs": [
        {
          "internalType": "bool",
          "name": "isWhitelisted",
          "type": "bool"
        },
        {
          "internalType": "uint24",
          "name": "poolFee",
          "type": "uint24"
        }
      ],
      "stateMutability": "view",
      "type": "function"
    }
  ],
  "bytecode": "0x6101c080604052346103a75761012081616436803803809161002182856103d1565b8339810103126103a757610034816103f4565b610040602083016103f4565b9061004d604084016103f4565b9261005a606082016103f4565b610066608083016103f4565b9361007360a084016103f4565b9161008060c085016103f4565b9261009a61010061009360e088016103f4565b96016103f4565b6001600160a01b039096169687156103be575f80546001600160a01b031981168a178255604051918a916001600160a01b0316907f8be0079c531659141344cd1fd0a4f28419497f9722a3daafe3b4186f6b6457e09080a360017f9b779b17422d0df92223018b32b4d1fa46e071723d6817e2486d003becc55f008190556101f4600281905560035561251c600455600655610c89818101906001600160401b038211838310176103615760409183916157ad83398b81523060208201520301905ff09283156103b3576001600160a01b0393841660a052938316608081905298831660c05292821660e05291811661010081905291166101205260405163c45a015560e01b815290602090829060049082905afa9081156103b3575f91610375575b506001600160a01b03908116610140529081166101605290811661018052166101a052600580546001600160a01b03191691909117905560408051919082016001600160401b03811183821017610361576040526001825260208201905f82525f52600960205260405f20915115159060ff63ffffff008454925160081b1692169063ffffffff1916171790556040516153a4908161040982396080518181816105a1015261432e015260a05181818161038c01528181610435015281816122130152818161398b01528181613ca2015261428c015260c051818181610208015281816113aa015281816129fe01528181612b340152818161335401526135d5015260e0518181816115cb01528181613398015281816134fe01526136fb0152610100518181816103d101526149e3015261012051818181611c60015281816143ad0152614b7501526101405181818161083d0152614d980152610160518181816102d30152610af5015261018051818181610f460152818161117c015261299501526101a05181818161091101528181610ff001528181611f3d01526127f30152f35b634e487b7160e01b5f52604160045260245ffd5b90506020813d6020116103ab575b81610390602093836103d1565b810103126103a7576103a1906103f4565b5f6101bd565b5f80fd5b3d9150610383565b6040513d5f823e3d90fd5b631e4fbdf760e01b5f525f60045260245ffd5b601f909101601f19168101906001600160401b0382119082101761036157604052565b51906001600160a01b03821682036103a75756fe60806040526004361015610011575f80fd5b5f5f3560e01c806306d4136a14611cea5780630c5a61f814611c8f5780630c8106dc14611c4b57806316c38b3c14611c0657806317e931cf14611be95780631f618e6314611bb05780631ff287db146116ab578063220cd34c146115fa57806322a9339f146115b657806325c2cd121461158f578063299a4b231461101f5780632c159a1a14610fdb57806332a957b314610f9257806335659fb814610f755780633930a43914610f31578063462cdb2514610e9c5780635c975abb14610e77578063715018a614610e2057806377f947cd1461086c5780637c887c5914610827578063803db96d146107fe5780638d977672146106385780638da5cb5b146106115780638fe906d5146105ee57806397cc1057146105d0578063a98ad46c1461058b578063aaa3ae5f1461056d578063ae169a5014610548578063af45af9b146104fb578063c0417e58146104c0578063c06e690114610400578063c31c9c07146103bb578063c790fb6714610376578063d7ee3bd21461033d578063db36887e1461031f578063e1a4521814610302578063e66996a7146102bd578063f2fde38b14610237578063f6ef95a1146101f25763fdc3d8d7146101d2575f80fd5b346101ef57806003193601126101ef576020600654604051908152f35b80fd5b50346101ef57806003193601126101ef576040517f00000000000000000000000000000000000000000000000000000000000000006001600160a01b03168152602090f35b50346101ef5760203660031901126101ef57610251611d14565b610259613248565b6001600160a01b031680156102a95781546001600160a01b03198116821783556001600160a01b03167f8be0079c531659141344cd1fd0a4f28419497f9722a3daafe3b4186f6b6457e08380a380f35b631e4fbdf760e01b82526004829052602482fd5b50346101ef57806003193601126101ef576040517f00000000000000000000000000000000000000000000000000000000000000006001600160a01b03168152602090f35b50346101ef57806003193601126101ef5760206040516127108152f35b50346101ef57806003193601126101ef576020600154604051908152f35b50346101ef5760203660031901126101ef5761035761326e565b610362600435612f7e565b60015f51602061534f5f395f51905f525580f35b50346101ef57806003193601126101ef576040517f00000000000000000000000000000000000000000000000000000000000000006001600160a01b03168152602090f35b50346101ef57806003193601126101ef576040517f00000000000000000000000000000000000000000000000000000000000000006001600160a01b03168152602090f35b50346101ef5760203660031901126101ef5761041a611d14565b610422613248565b6001600160a01b031680156104b15781907f00000000000000000000000000000000000000000000000000000000000000006001600160a01b031690813b156104ad578291602483926040519485938492637f4cd6ad60e11b845260048401525af180156104a2576104915750f35b8161049b91611d86565b6101ef5780f35b6040513d84823e3d90fd5b5050fd5b63d92e233d60e01b8252600482fd5b50346101ef5760203660031901126101ef576004356104dd613248565b6107d081116104ec5760025580f35b63162908e360e11b8252600482fd5b50346101ef5760803660031901126101ef5760243560ff81168103610544576044359060ff82168203610540576103629161053461326e565b606435916004356127da565b8280fd5b5080fd5b50346101ef5760203660031901126101ef5761056261326e565b610362600435611f15565b50346101ef57806003193601126101ef576020600354604051908152f35b50346101ef57806003193601126101ef576040517f00000000000000000000000000000000000000000000000000000000000000006001600160a01b03168152602090f35b50346101ef57806003193601126101ef576020600454604051908152f35b50346101ef57806003193601126101ef576020610609611e69565b604051908152f35b50346101ef57806003193601126101ef57546040516001600160a01b039091168152602090f35b50346101ef5760203660031901126101ef5760406103a0916004358152600760205220805490600181015490600281015460038201546004830154600584015491600685015493600860078701549601549660ff6040519960018060a01b0381168b5264ffffffffff8160a01c1660208c015264ffffffffff8160c81c1660408c015260f01c16151560608a0152608089015260018060a01b03811660a089015263ffffffff8160a01c1660c089015263ffffffff8160c01c1660e089015260e01c61010088015263ffffffff811661012088015263ffffffff8160201c1661014088015263ffffffff8160401c1661016088015263ffffffff8160601c1661018088015261ffff8160801c166101a088015261ffff8160901c166101c088015261ffff8160a01c166101e088015261ffff8160b01c1661020088015260ff8160c01c1661022088015260ff8160c81c16151561024088015260ff8160d01c16151561026088015260ff8160d81c16151561028088015260e01c6102a08701526001600160801b0381166102c087015260801c6102e08601526001600160801b03811661030086015260801c610320850152610340840152610360830152610380820152f35b50346101ef57806003193601126101ef576005546040516001600160a01b039091168152602090f35b50346101ef57806003193601126101ef576040517f00000000000000000000000000000000000000000000000000000000000000006001600160a01b03168152602090f35b5034610c4957610300366003190112610c495760643560443560043560a4356084356024353661010411610c49573661018411610c4957366101c411610c49573661030411610c49576108bd61326e565b835f52600760205260405f209564ffffffffff875460a01c16421015610e11576002870163ffffffff815460a01c168015159081610dfc575b50610ded57604051630ac3c0e360e41b8152336004820152977f00000000000000000000000000000000000000000000000000000000000000006001600160a01b031660208a602481845afa998a15610c3e575f9a610db9575b508915610d52575b6040516348850b8960e01b815233600482015260c081602481855afa8015610c3e575f5f925f92610ce8575b5063ffffffff865460e01c911610610cd957600384019182549061ffff8260801c1611610cca5760ff63ffffffff9160c01c16911611610cbb57885f52600860205260405f208b5f5260205260405f20600181019060ff825460a01c16610cac575f51602061530f5f395f51905f528c1015610c4d575f51602061530f5f395f51905f52871015610c4d575f51602061530f5f395f51905f52891015610c4d575f51602061530f5f395f51905f528a1015610c4d57876101c43503610c4d578b6101e43503610c4d57866102043503610c4d57886102243503610c4d57896102443503610c4d57610a7361356e565b6102643503610c4d578a6102843503610c4d57336102a43503610c4d5760068501546102c43503610c4d5760078501546102e43503610c4d57604080516379ddb87b60e11b81529060c460048301376101045f604483015b60028210610c9657505050604061018460c48301376101406101c4610104830137602081610244817f00000000000000000000000000000000000000000000000000000000000000006001600160a01b03165afa908115610c3e575f91610c5c575b5015610c4d57879055805460ff60a01b1933166001600160a81b031990911617600160a01b179055805463ffffffff610b67818316611e14565b169063ffffffff1916179055803b15610c49575f809160248c60405194859384926371a2f14160e01b845260048401525af18015610c3e57610c28575b506004015460801c80610c08575b505060405195865260208601526040850152606084015260808301527ff6412f9df810b394a713ef7916b5e83b9c7b7a6988ae0f50dabe7e7e2ff71def60a03393a460015f51602061534f5f395f51905f525580f35b9054610c219190309033906001600160a01b03166132a6565b5f80610bb2565b610c35919a505f90611d86565b5f986004610ba4565b6040513d5f823e3d90fd5b5f80fd5b6309bde33960e01b5f5260045ffd5b90506020813d602011610c8e575b81610c7760209383611d86565b81010312610c4957610c8890611e5c565b5f610b2d565b3d9150610c6a565b6040808281866001953701930191019091610acb565b6317fd8aab60e31b5f5260045ffd5b63d798899160e01b5f5260045ffd5b634d9c6a8b60e11b5f5260045ffd5b63559a683360e01b5f5260045ffd5b9250505060c0813d60c011610d4a575b81610d0560c09383611d86565b81010312610c4957610d1681611e4b565b90610d2360208201611e4b565b50610d3060408201611e4b565b50610d4260a060608301519201611e4b565b90915f610984565b3d9150610cf8565b6040516338c38e0d60e21b81523360048201529099506020816024815f8e5af1908115610c3e575f91610d87575b5098610958565b90506020813d602011610db1575b81610da260209383611d86565b81010312610c4957515f610d80565b3d9150610d95565b9099506020813d602011610de5575b81610dd560209383611d86565b81010312610c495751985f610950565b3d9150610dc8565b631fb94a6d60e31b5f5260045ffd5b905063ffffffff60038a01541610155f6108f6565b6352cc987160e11b5f5260045ffd5b34610c49575f366003190112610c4957610e38613248565b5f80546001600160a01b0319811682556001600160a01b03167f8be0079c531659141344cd1fd0a4f28419497f9722a3daafe3b4186f6b6457e08280a3005b34610c49575f366003190112610c4957602060ff60055460a01c166040519015158152f35b34610c49576040366003190112610c49576004355f52600860205260405f206024355f5260205261010060405f2060ff6001825492015460405192835260018060a01b0381166020840152818160a01c1615156040840152818160a81c1615156060840152818160b01c1615156080840152818160b81c1660a0840152818160c01c1660c084015260c81c16151560e0820152f35b34610c49575f366003190112610c49576040517f00000000000000000000000000000000000000000000000000000000000000006001600160a01b03168152602090f35b34610c49575f366003190112610c49576020600254604051908152f35b34610c49576020366003190112610c49576001600160a01b03610fb3611d14565b165f5260096020526040805f205462ffffff82519160ff81161515835260081c166020820152f35b34610c49575f366003190112610c49576040517f00000000000000000000000000000000000000000000000000000000000000006001600160a01b03168152602090f35b34610c495760a0366003190112610c495760043560243567ffffffffffffffff8111610c4957611053903690600401611d39565b60449291923567ffffffffffffffff8111610c4957611076903690600401611d39565b9360643567ffffffffffffffff8111610c4957611097903690600401611d39565b92909360843567ffffffffffffffff8111610c49576110ba903690600401611d39565b9790946110c561326e565b5f8881526007602052604090208054979096906001600160a01b03891633036115805760048801986001600160801b038a5416156115715760a01c64ffffffffff1642111561156257600188019283549b60038a019889549d8e60d81c60ff1661112e91613338565b156115535763ffffffff8e60201c166115445760028b019d8e5460c01c63ffffffff169063ffffffff16106115355787156115125786881480159061152b575b8015611521575b61151257967f00000000000000000000000000000000000000000000000000000000000000006001600160a01b0316908d5f5b82811061128357508f908e8e8e805463ffffffff81169060e01c146111db575b60015f51602061534f5f395f51905f5255005b826112309161121d63ffffffff6001600160801b035f5160206152ef5f395f51905f52975416926001600160801b031985541685555416835460801c90611e2b565b916001600160801b038154169055611e3e565b9081611262575b549354604080516001600160a01b039283168152602081019390935294169390a380808080806111c8565b8454815461127e9184916001600160a01b0390811691166137f0565b611237565b61128e81848d611db5565b35825f52600860205260405f20905f5260205260405f20600181019081549360ff8560a01c16156115035760ff8560c81c166114f4578f918f918b918f6112fd8f958d8f6112ec8c6112f7926112f16112ec836113649a8199611db5565b611dd9565b9a611db5565b97611db5565b35926040519061130c82611d6a565b61131461356e565b8252602082015260018060a01b038a166040820152602060ff86169384606084015260ff88169586608085015260a084015254918d6040518080968194631eb694f160e31b835260048301611de7565b03915afa918215610c3e575f926114c1575b50036114b257935460d81c60ff16938e85156114a95754604051632dfdd74b60e21b815260048101919091526020816024817f00000000000000000000000000000000000000000000000000000000000000006001600160a01b03165afa908115610c3e575f91611478575b50905b109081159161146d575b50159283611459575b50505061144a576001928360c81b9060ff60c81b19161790556114428d611422815460e01c611e14565b81546001600160e01b031660e09190911b6001600160e01b031916179055565b018e906111a8565b63d3fd86af60e01b5f5260045ffd5b61146593508d546135b9565b5f80806113f8565b60019150115f6113ef565b90506020813d82116114a1575b8161149260209383611d86565b81010312610c4957515f6113e2565b3d9150611485565b506001906113e5565b633f4d605360e01b5f5260045ffd5b9091506020813d82116114ec575b816114dc60209383611d86565b81010312610c495751905f611376565b3d91506114cf565b630b01a8d960e21b5f5260045ffd5b63205e472d60e21b5f5260045ffd5b63162908e360e11b5f5260045ffd5b5081881415611175565b508288141561116e565b6304e5876f60e21b5f5260045ffd5b63a89ac15160e01b5f5260045ffd5b63ef5141b760e01b5f5260045ffd5b63461d7dff60e01b5f5260045ffd5b63d0d0e0b960e01b5f5260045ffd5b6393687c0b60e01b5f5260045ffd5b34610c49575f366003190112610c495760206040515f51602061530f5f395f51905f528152f35b34610c49575f366003190112610c49576040517f00000000000000000000000000000000000000000000000000000000000000006001600160a01b03168152602090f35b34610c49576060366003190112610c4957611613611d14565b61161b611d2a565b906044359062ffffff8216809203610c4957611635613248565b604051926040840184811067ffffffffffffffff82111761169757604052151583526020830191825260018060a01b03165f52600960205260405f20915115159060ff63ffffff008454925160081b1692169063ffffffff1916171790555f80f35b634e487b7160e01b5f52604160045260245ffd5b34610c49576101c0366003190112610c49576116c5611d2a565b6044356001600160a01b0381168103610c495764ffffffffff60643516908160643503610c49576084359063ffffffff821693848303610c495760a43563ffffffff811695868203610c495760c4359663ffffffff88168803610c495761ffff60e4351660e43503610c4957610144359660ff88168803610c495767ffffffffffffffff6101a43511610c49573660236101a435011215610c495767ffffffffffffffff6101a4356004013511610c49573660246101a435600401356101a435010111610c495761179461326e565b60ff60055460a01c16611ba157421015611b925781109081611b88575b50611512576001600160801b036101243511611512576001600160801b0361010435116115125761012435611a7d575b600654945f198614611a695760018681016006555f8781526007602090815260409091208054600480359483019490945560038201805464ffffffffff60a01b1933166001600160c81b03199093169290921760643560a090811b64ffffffffff60a01b169190911784559990991b63ffffffff60a01b166001600160a01b0389161760c096871b63ffffffff60c01b161760e09b909b1b6001600160e01b0319169a909a176002820155610124356001600160801b03166001600160801b031961010435608090811b91909116919091179382019390935560e43590921b61ffff60801b169415801560d81b60ff60d81b166bff0000ff000000000000ffff60801b19909a1699909917949094179190921b60ff60c01b161790935593916001600160a01b0382165f9081526009865260409020546003828101805460ff60d01b60ff909416151560d01b9390931660ff60d01b1984168117825560025461ffff60a01b60a09190911b1666ff00000000ffff60a01b198516821781178355925461ffff60b01b60b09190911b1666ff0000ffffffff60a01b199094161790911791909117905561016435600682015561018435600782015582611a5c575b5060408051921583526001600160a01b039190911684830152610124359082015261016435606082015261018435608082015260c060a082018190526101a435600481013591830182905260240160e08301375f60e06101a435600401358301015260043590827f8e5ec2318e6d8c5f1ccf844ae4110d53b3e9e49f7be1d07331a3a1534626f697339260e081601f19601f6101a4356004013501168101030190a460015f51602061534f5f395f51905f5255604051908152f35b60086001910155846119a1565b634e487b7160e01b5f52601160045260245ffd5b6040516370a0823160e01b81523060048201526020816024816001600160a01b0388165afa908115610c3e575f91611b56575b50611ac96101243530336001600160a01b0388166132a6565b6040516370a0823160e01b8152306004820152906020826024816001600160a01b0389165afa918215610c3e575f92611b20575b50611b0c906101243592611da8565b146117e15763162908e360e11b5f5260045ffd5b9091506020813d602011611b4e575b81611b3c60209383611d86565b81010312610c49575190611b0c611afd565b3d9150611b2f565b90506020813d602011611b80575b81611b7160209383611d86565b81010312610c49575187611ab0565b3d9150611b64565b90501515876117b1565b6337bf561360e11b5f5260045ffd5b63ab35696f60e01b5f5260045ffd5b34610c49576020366003190112610c4957600435611bcc613248565b80158015611bde575b61151257600455005b506127108111611bd5565b34610c49575f366003190112610c49576020604051620151808152f35b34610c49576020366003190112610c4957600435801515809103610c4957611c2c613248565b6005805460ff60a01b191660a09290921b60ff60a01b16919091179055005b34610c49575f366003190112610c49576040517f00000000000000000000000000000000000000000000000000000000000000006001600160a01b03168152602090f35b34610c49576020366003190112610c4957611ca8611d14565b611cb0613248565b6001600160a01b03168015611cdb576bffffffffffffffffffffffff60a01b60055416176005555f80f35b63d92e233d60e01b5f5260045ffd5b34610c49576020366003190112610c4957600435611d06613248565b6107d0811161151257600355005b600435906001600160a01b0382168203610c4957565b602435908115158203610c4957565b9181601f84011215610c495782359167ffffffffffffffff8311610c49576020808501948460051b010111610c4957565b60c0810190811067ffffffffffffffff82111761169757604052565b90601f8019910116810190811067ffffffffffffffff82111761169757604052565b91908203918211611a6957565b9190811015611dc55760051b0190565b634e487b7160e01b5f52603260045260245ffd5b3560ff81168103610c495790565b919060c08301925f905b60068210611dfe57505050565b6020806001928551815201930191019091611df1565b63ffffffff1663ffffffff8114611a695760010190565b81810292918115918404141715611a6957565b91908201809211611a6957565b519063ffffffff82168203610c4957565b51908115158203610c4957565b6001546b014adf4b7320334b900000008110611ed1576b0219aada9b14535aca0000008110611eca576b0295be96e6406697200000008110611ec3576b02e87669c308736a0400000011611ebd5761013890565b61027190565b506104e290565b506109c490565b5061138890565b90816020910312610c4957516001600160a01b0381168103610c495790565b8115611f01570490565b634e487b7160e01b5f52601260045260245ffd5b5f8181526007602090815260408083209051630ac3c0e360e41b8152336004820152939092917f00000000000000000000000000000000000000000000000000000000000000006001600160a01b03169085602481845afa948515610c3e575f956127a6575b508415612768576040516331a9108f60e11b815260048101869052602081602481855afa908115610c3e575f91612777575b50336001600160a01b039091160361276857600384019263ffffffff84541691600286019263ffffffff845460c01c161161268657855460ff8160f01c16156126775760c81c64ffffffffff1642111561266857835f52600860205260405f20875f52602052600160405f200195865460ff8160a01c16156115035760ff8160b01c166126595760ff60b01b1916600160b01b179687905560a887901c60ff16156125d7575f815460ff8160f01c169081612645575b5080612633575b80612621575b612619575b6125d75760ff9495966120a5600183015491895492888260b81c1698899260c01c169060ff8560d81c16906135b9565b94859182998a9889986125ce575b886125c3575b506008850154918485156125bc575b806125ae575b61253a575b505f975f9961211f575b50505050505050506040519315158452602084015260408301527f6863e961e94fae560d4a81debbe4467e9665cb100d9d63a47fcacc0f6ee56e0160603393a4565b81549463ffffffff8660401c169461214063ffffffff8860601c1687611e3e565b95600186111597885f14612533576001915b891561252d575087915b8080612517575b8061250e575b6124ef575b806124df575b806124c7575b806124be575b612474575b50508a80612456575b505060055f97015460801c958661236e575b5050505050505080612204575b50803b1561054457818091604460405180948193635636602960e01b83528c60048401528960248401525af180156104a2576121ef575b8080808080806120dd565b6121fa828092611d86565b6101ef57806121e4565b6040516318160ddd60e01b81527f00000000000000000000000000000000000000000000000000000000000000006001600160a01b03169550602081600481895afa908115610c3e575f9161233c575b50604051630cb2dac360e21b81526020816004818a5afa908115610c3e5783905f92612306575b506122869192611e3e565b111561230157505f5b80948161229d575b506121ad565b6122a982600154611e3e565b600155803b15610c49576040516340c10f1960e01b815233600482015260248101929092525f908290604490829084905af18015610c3e576122ec575b80612297565b6122f99192505f90611d86565b5f905f6122e6565b61228f565b9150506020813d602011612334575b8161232260209383611d86565b81010312610c4957518261228661227b565b3d9150612315565b90506020813d602011612366575b8161235760209383611d86565b81010312610c4957515f612254565b3d915061234a565b9692939495965f146123a45750508315925061239c9150505761239091611ef7565b5f8080808080806121a0565b50505f612390565b80919293955095939590612443575b156123f15750505f198301838111611a69576123ec936123db6123e09263ffffffff94611e2b565b611ef7565b915460401c1690611ef7565b612390565b9093919080612430575b612408575b505050612390565b612428935063ffffffff9161241c91611ef7565b915460601c1690611ef7565b5f8080612400565b5063ffffffff835460601c1615156123fb565b5063ffffffff845460401c1615156123b3565b905461246d919033906001600160a01b03166137f0565b5f8a61218e565b63ffffffff8082949e939460201c1691160363ffffffff8111611a69576124b6926123db6124b09263ffffffff60048e015460801c9116611e2b565b90611e3e565b995f80612185565b50811515612180565b5063ffffffff8160201c1663ffffffff82161161217a565b5060048a015460801c1515612174565b9c50612508826001600160801b0360058d015416611ef7565b9c61216e565b50821515612169565b506001600160801b0360058c0154161515612163565b9161215c565b8391612152565b63ffffffff8160401c1615801590612591575b15612562575061255c8a613b5d565b5f6120d3565b60601c63ffffffff16151580612586575b1561255c576125818a613878565b61255c565b506002821015612573565b5063ffffffff8160601c161515801561254d57506001831461254d565b5060ff8160c81c16156120ce565b50886120c8565b60011497505f6120b9565b801594506120b3565b50505050915050604051905f82525f60208301525f60408301527f6863e961e94fae560d4a81debbe4467e9665cb100d9d63a47fcacc0f6ee56e0160603393a4565b506001612075565b5063ffffffff875460601c1615612070565b5063ffffffff875460401c161561206a565b64ffffffffff915060c81c1642115f612063565b630c8d9eab60e31b5f5260045ffd5b6365f368e360e11b5f5260045ffd5b6319aee32760e11b5f5260045ffd5b505090915064ffffffffff835460a01c1642111561156257815f52600860205260405f20845f52602052600160405f2001805460ff8160a01c16156115035760ff8160b01c1661265957600160b01b9060ff60b01b19161780915560045f94015460801c908115159081612759575b50612737575b5050604051915f835260208301525f60408301527f6863e961e94fae560d4a81debbe4467e9665cb100d9d63a47fcacc0f6ee56e0160603393a4565b905490925061275290839033906001600160a01b03166137f0565b5f806126fb565b60ff915060a81c16155f6126f5565b63aba4733960e01b5f5260045ffd5b612799915060203d60201161279f575b6127918183611d86565b810190611ed8565b5f611fad565b503d612787565b9094506020813d6020116127d2575b816127c260209383611d86565b81010312610c495751935f611f7b565b3d91506127b5565b90925f825f52600760205260405f209060018060a01b037f00000000000000000000000000000000000000000000000000000000000000001660405196630ac3c0e360e41b8852336004890152602088602481855afa978815610c3e575f98612f4a575b508715612768576040516331a9108f60e11b815260048101899052602081602481865afa908115610c3e575f91612f2b575b50336001600160a01b039091160361276857855f52600860205260405f20885f5260205260405f20966001880194855460ff8160a01c16156115035760a81c60ff166115445780549364ffffffffff8560a01c16421115611562576003820193845493600284019463ffffffff865460c01c1663ffffffff82161061153557600185019760ff89549260d81c16906129088284613338565b156115535760ff8160f01c1615612ebb575b5064ffffffffff865460c81c164211612eac5760405161293981611d6a565b61294161356e565b81528d6020820152600160a01b600190038c5416604082015260ff85169e8f606083015260ff85169d8e608084015260a0830152546040518092631eb694f160e31b8252600482019061299391611de7565b7f00000000000000000000000000000000000000000000000000000000000000006001600160a01b031691849103815a93602094fa918215610c3e575f92612e78575b50036114b25715612e6d57604051632dfdd74b60e21b815260048101919091526020816024817f00000000000000000000000000000000000000000000000000000000000000006001600160a01b03165afa908115610c3e575f91612e3b575b508060088601805415612e33575b50505b8c10801590612e29575b612d6557885460ff60c01b1962ff00ff60a81b1990911660b883901b60ff60b81b1617600160a81b171660c083901b60ff60c01b161789558b96959493929190612ae090612acd612aab63ffffffff895460201c16611e14565b885467ffffffff00000000191660209190911b67ffffffff0000000016178855565b87549287549360ff8560d81c16906135b9565b600884015490612c5e575b50505090600460ff9392015460801c80612c40575b50505460d81c1615612c105790612b179154611e3e565b6040516304329c0360e01b815260048101919091526020816024817f00000000000000000000000000000000000000000000000000000000000000006001600160a01b03165afa918215612c045791612bb0575b507fd4147866cf174ea2639fc1997c2c78ad330814c2862cb461f8b72bb88818518e926060925b60018060a01b039054169560405192835260208301526040820152a4565b9190506020823d602011612bfc575b81612bcc60209383611d86565b81010312610c495790517fd4147866cf174ea2639fc1997c2c78ad330814c2862cb461f8b72bb88818518e612b6b565b3d9150612bbf565b604051903d90823e3d90fd5b60609392507fd4147866cf174ea2639fc1997c2c78ad330814c2862cb461f8b72bb88818518e9491505491612b92565b9054612c57919033906001600160a01b03166137f0565b5f80612b00565b6001908b1592835f14612d335750865463ffffffff60401b612c8863ffffffff8360401c16611e14565b60401b169063ffffffff60401b19161787555b1190811591612d2b575b50612cb2575b8080612aeb565b809192939495503b15612d275785809160248d60405194859384926320842d5d60e01b845260048401525af18015612d1c578a95949392918791612cf7575b50612cab565b8192939495965090612d0891611d86565b612d18579088939291855f612cf1565b8480fd5b6040513d88823e3d90fd5b8580fd5b90505f612ca5565b63ffffffff60601b612d4e606083901c63ffffffff16611e14565b60601b169063ffffffff60601b1916178755612c9b565b5050865460ff60a81b1916600160a81b179096559098949750955093505050833b15610c49575f9360248592604051968793849263105a0de160e01b845260048401525af1908115610c3e57600493612df292612e19575b50612dd163ffffffff825460201c16611e14565b67ffffffff0000000082549160201b169067ffffffff000000001916179055565b015460801c80612e00575050565b9054612e17919033906001600160a01b03166137f0565b565b5f612e2391611d86565b5f612dbd565b5060018a11612a51565b555f80612a44565b90506020813d602011612e65575b81612e5660209383611d86565b81010312610c4957515f612a36565b3d9150612e49565b506008840154612a47565b9091506020813d602011612ea4575b81612e9460209383611d86565b81010312610c495751905f6129d6565b3d9150612e87565b6340d8392160e11b5f5260045ffd5b620151804201804211611a695765ffffffffffff60c81b1990911660c891821b64ffffffffff60c81b1617600160f01b17808855604051911c64ffffffffff1681528d907ffd70cd91f840e43b2a6ad360dbd2b9f8a2a728f0d754c99d15e20b94f7ddf3c490602090a25f61291a565b612f44915060203d60201161279f576127918183611d86565b5f612870565b9097506020813d602011612f76575b81612f6660209383611d86565b81010312610c495751965f61283e565b3d9150612f59565b5f81815260076020526040902080549091906001600160a01b038116330361158057600483016001600160801b03815416156115715764ffffffffff8260a01c16421115611562575f6003850190815463ffffffff81168015908115613231575b50156130e8575b505f5160206152ef5f395f51905f529350613064575080546001600160801b03198116909155600284018054855491956001600160801b03909316929161303b9184916001600160a01b0390811691166137f0565b549354604080516001600160a01b0392831681526020810193909352941693819081015b0390a3565b5460c81c60ff16156130da575b60058401545f9091556001600160801b0316806130b6575b8354600290940154604080516001600160a01b03928316815260208101939093529416938190810161305f565b600284015484546130d59183916001600160a01b0390811691166137f0565b613089565b6130e383614066565b613071565b905060ff8460f01c1680809161321e575b8061320d575b806131fc575b156131245750505f5160206152ef5f395f51905f52925060015f612fe6565b929390929150816131e8575b50806131d7575b806131c5575b806131b6575b1561144a5760c81c60ff16156131a8575b6001600160801b0381541680156115715781546001600160801b031916909155600283018054845491945f5160206152ef5f395f51905f529392909161303b9184916001600160a01b0391821691166137f0565b6131b182613878565b613154565b50600260088501541015613143565b5063ffffffff8160601c16151561313d565b5063ffffffff8160401c1615613137565b64ffffffffff915060c81c1642115f613130565b5063ffffffff8260601c1615613105565b5063ffffffff8260401c16156130ff565b5064ffffffffff8560c81c1642116130f9565b905063ffffffff600289015460c01c16115f612fdf565b5f546001600160a01b0316330361325b57565b63118cdaa760e01b5f523360045260245ffd5b60025f51602061534f5f395f51905f5254146132975760025f51602061534f5f395f51905f5255565b633ee5aeb560e01b5f5260045ffd5b6040516323b872dd60e01b5f9081526001600160a01b039384166004529290931660245260449390935260209060648180865af19060015f5114821615613317575b6040525f606052156132f75750565b635274afe760e01b5f9081526001600160a01b0391909116600452602490fd5b90600181151661332f57823b15153d151616906132e8565b503d5f823e3d90fd5b90156134e157604051632dfdd74b60e21b8152600481018290527f00000000000000000000000000000000000000000000000000000000000000006001600160a01b0316602082602481845afa918215610c3e575f926134ad575b5090917f00000000000000000000000000000000000000000000000000000000000000006001600160a01b031691905f5b8481106133d5575050505050600190565b6133df8183611e3e565b604051906304329c0360e01b82526004820152602081602481875afa908115610c3e575f9161347c575b506040519063dd34de6760e01b82526004820152602081602481885afa908115610c3e575f9161344b575b5015613442576001016133c4565b50505050505f90565b90506020813d8211613474575b8161346560209383611d86565b81010312610c4957515f613434565b3d9150613458565b90506020813d82116134a5575b8161349660209383611d86565b81010312610c4957515f613409565b3d9150613489565b9091506020813d6020116134d9575b816134c960209383611d86565b81010312610c495751905f613393565b3d91506134bc565b60405163dd34de6760e01b815260048101919091526020816024817f00000000000000000000000000000000000000000000000000000000000000006001600160a01b03165afa908115610c3e575f9161353c575b50151590565b90506020813d602011613566575b8161355760209383611d86565b81010312610c4957515f613536565b3d915061354a565b5f51602061530f5f395f51905f52604051602081019072434c41574d494e45525f434f4d4d49545f563160681b8252466033820152603381526135b2605382611d86565b5190200690565b90156136dd57604051637ae2e67b60e01b8152600481018290527f00000000000000000000000000000000000000000000000000000000000000006001600160a01b03169190602081602481865afa908115610c3e575f916136a3575b501561369757602090602460405180948193632b7531e160e21b835260048301525afa908115610c3e575f91613664575b5060ff91821691160361365b5760ff161590565b60ff1660011490565b90506020813d60201161368f575b8161367f60209383611d86565b81010312610c49575160ff613647565b3d9150613672565b50505060ff1660011490565b90506020813d6020116136d5575b816136be60209383611d86565b81010312610c49576136cf90611e5c565b5f613616565b3d91506136b1565b604051630141320560e21b8152600481018290525f602482015291507f00000000000000000000000000000000000000000000000000000000000000006001600160a01b031690602083604481855afa928315610c3e575f936137bb575b50602090604460405180948193630141320560e21b83526004830152600160248301525afa908115610c3e575f91613789575b50808211613780571161365b57505f90565b505060ff161590565b90506020813d6020116137b3575b816137a460209383611d86565b81010312610c4957515f61376e565b3d9150613797565b9092506020813d6020116137e8575b816137d760209383611d86565b81010312610c49575191602061373b565b3d91506137ca565b916040519163a9059cbb60e01b5f5260018060a01b031660045260245260205f60448180865af19060015f5114821615613830575b604052156132f75750565b90600181151661332f57823b15153d15161690613825565b519060ff82168203610c4957565b60ff166012039060ff8211611a6957565b60ff16604d8111611a6957600a0a90565b5f81815260076020526040902060038101805460ff60c81b1916600160c81b17815591906138a4611e69565b835461ffff60901b1916609082901b61ffff60901b16178455835460ff8160d01c1615613b27576139129061390d6001600160801b036004860154169161271061390661ffff826138fa828660a01c1688611e2b565b049360b01c1685611e2b565b0492611da8565b611da8565b600283015460405163313ce56760e01b815291929190602090829060049082906001600160a01b03165afa908115610c3e575f91613ae4575b5061397c9261397791601260ff82161015613adb5761396c61397191613856565b613867565b90611e2b565b611e2b565b6040516318160ddd60e01b81527f00000000000000000000000000000000000000000000000000000000000000006001600160a01b0316602082600481845afa918215610c3e575f92613aa6575b5090602060049260405193848092630cb2dac360e21b82525afa918215610c3e575f92613a65575b505f51602061532f5f395f51905f52938363ffffffff93613a17606096600195611e3e565b11613a5e575b6005820180546001600160801b031660809290921b6001600160801b03191691909117905501549454821c16604051905f825260208201525f6040820152a3565b505f613a1d565b9091506020813d602011613a9e575b81613a8160209383611d86565b81010312610c495751905f51602061532f5f395f51905f526139f2565b3d9150613a74565b91506020823d602011613ad3575b81613ac160209383611d86565b81010312610c495790519060206139ca565b3d9150613ab4565b50600190611e2b565b90506020813d602011613b1f575b81613aff60209383611d86565b81010312610c495761397c92613b1761397792613848565b91509261394b565b3d9150613af2565b935050606060015f51602061532f5f395f51905f529201549363ffffffff604051915f8352831c1660208201525f6040820152a3565b5f81815260076020526040812060038101805460ff60c81b1916600160c81b1781559291613b89611e69565b845461ffff60901b1916609082901b61ffff60901b1617855560ff855460d01c1615614009579161ffff926001600160801b0360048301541692613bf987549461390d612710613bf081613be28b8b60a01c1686611e2b565b04998a9960b01c1684611e2b565b04978892611da8565b6005840180546001600160801b0319166001600160801b0383161781559490929080613fa9575b5060028401805460405163313ce56760e01b8152919290602090839060049082906001600160a01b03165afa8015610c3e575f90613f6e575b613c7f9250601260ff82161015613f6357613c7961396c61397792613856565b86611e2b565b90600a8202828104600a1483151715611a6957604051630cb2dac360e21b8152977f00000000000000000000000000000000000000000000000000000000000000006001600160a01b03169290916064900460208a600481875afa998a15610c3e575f9a613f2f575b506040516318160ddd60e01b8152602081600481885afa8015610c3e57828c915f90613ef7575b613d1a929350611e3e565b11613ef0575b80613e68575b50948160049660209493613e1a575b505050604051948580926318160ddd60e01b82525afa9283156104a2578293613dde575b5092613dae6001600160801b0380946001945f51602061532f5f395f51905f5299613d888960609b9a94611e3e565b11613dd6575b5086546001600160801b0316911660801b6001600160801b031916178555565b0154955491541663ffffffff60405192818160401c168452841c1660208301526040820152a3565b90505f613d8e565b94939092506020853d602011613e12575b81613dfc60209383611d86565b81010312610c4957935192939291613dae613d59565b3d9150613def565b54613e309082906001600160a01b03168d614279565b15613e3c575b80613d35565b613e506001600160801b0392918392611e3e565b16166001600160801b03198854161787555f80613e36565b959094939291613e7a87600154611e3e565b60015587546001600160a01b0316833b15610c49576040516340c10f1960e01b81526001600160a01b0391909116600482015260248101979097525f8760448183875af1968715610c3e57600497613ed9575b50919293949095613d26565b60209495505f613ee891611d86565b5f9493613ecd565b505f613d20565b5050506020813d602011613f27575b81613f1360209383611d86565b81010312610c4957518a9081908390613d0f565b3d9150613f06565b9099506020813d602011613f5b575b81613f4b60209383611d86565b81010312610c495751985f613ce8565b3d9150613f3e565b506139776001613c79565b506020823d602011613fa1575b81613f8860209383611d86565b81010312610c4957613f9c613c7f92613848565b613c59565b3d9150613f7b565b6002850180546005548a927f3e4febac6100e201db638e98000ef75bf1b86e7187ecd61f2ad8918c293f43ca92602092613ff19187916001600160a01b0390811691166137f0565b546040519485526001600160a01b031693a35f613c20565b50506060816001600160801b03600160045f51602061532f5f395f51905f52950192828454168360058301911684198254161790550154955491541663ffffffff60405192818160401c168452841c1660208301526040820152a3565b5f81815260076020526040902060038101805460ff60c81b1916600160c81b1781559091906140b461ffff614099611e69565b835461ffff60901b1916911660901b61ffff60901b16178255565b60ff815460d01c16156141d95760606001845f51602061532f5f395f51905f529361411c6001600160801b03600461ffff9901541691549161390d612710614113816141058d8860a01c1686611e2b565b049b8c9660b01c1684611e2b565b04938492611da8565b6005830180546001600160801b0319166001600160801b038316179055968061417d575b5080614160575b50015493604051905f82525f60208301526040820152a3565b61417690838060a01b0360028401541687614279565b505f614147565b867f3e4febac6100e201db638e98000ef75bf1b86e7187ecd61f2ad8918c293f43ca6020600286016141c285898060a01b038354168a8060a01b0360055416906137f0565b878060a01b0390541693604051908152a35f614140565b505f51602061532f5f395f51905f5260606001600160801b0360016004860195828754168360058301911684198254161790550154945416604051905f82525f60208301526040820152a3565b519061ffff82168203610c4957565b51906001600160701b0382168203610c4957565b90816060910312610c495761425d81614235565b91614276604061426f60208501614235565b9301611e4b565b90565b604051630cb2dac360e21b81525f9391927f00000000000000000000000000000000000000000000000000000000000000006001600160a01b0316929091602081600481875afa908115610c3e575f91614faf575b506040516318160ddd60e01b8152602081600481885afa8015610c3e5782915f91614f7a575b501015614f72576040516318160ddd60e01b815290602082600481885afa908115610c3e575f91614f3c575b61432a9250611da8565b935b7f00000000000000000000000000000000000000000000000000000000000000006001600160a01b03818116969085168088148015969395938493919088614d4d575b505f908080614d44575b614b60575b15918215614b56575b5050614b495782956149a4575b50505082156149995760405163c45a015560e01b8152947f00000000000000000000000000000000000000000000000000000000000000006001600160a01b03169190602087600481865afa968715610c3e575f97614978575b5060405163e6a4390560e01b81526001600160a01b0387811660048301528281166024830152909760209189916044918391165afa968715610c3e575f97614957575b505f966001600160a01b031680614832575b506040516318160ddd60e01b81526020816004818a5afa908115610c3e575f91614800575b50604051630cb2dac360e21b81526020816004818b5afa908115610c3e5789905f926147ca575b5061449a9192611e3e565b116147c2575b86156147b5576144b287600154611e3e565b600155853b15610c49576040516340c10f1960e01b8152306004820152602481018890525f81604481838b5af18015610c3e576147a0575b506144f68584866150ae565b60405163095ea7b360e01b81526001600160a01b0384166004820152602481018890526020816044818c8b5af180156147955761475e575b5060045461271061454b81614543848a611e2b565b04928a611e2b565b0460018060a01b0360055416906040519262e8e33760e81b84528460048501528960248501528860448501528a6064850152608484015260a483015260c48201524260e4820152606081610104818c885af1908161472f575b506146eb5750506145b683828461513f565b6040519063095ea7b360e01b8252600482015285602482015260208160448189885af18015612d1c5761469f575b50600554614641959460209490939092614607926001600160a01b0316906137f0565b60055460405163a9059cbb60e01b81526001600160a01b039091166004820152602481019290925290938491908290859082906044820190565b03925af1801561469257614657575b5050600190565b6020823d60201161468a575b8161467060209383611d86565b810103126101ef575061468290611e5c565b505f80614650565b3d9150614663565b50604051903d90823e3d90fd5b6020813d6020116146e3575b816146b860209383611d86565b81010312612d2757614641959492602094926146d661460793611e5c565b50929450929495506145e4565b3d91506146ab565b9096939150606094507f288d497cff4947569f9ed4812c4adaea927ce8bbb4de023cc36ee76b7626e13b9592506040519350835260208301526040820152a2600190565b606090813d8311614757575b6147458183611d86565b81010312614753575f6145a4565b8880fd5b503d61473b565b6020813d60201161478d575b8161477760209383611d86565b810103126147535761478890611e5c565b61452e565b3d915061476a565b6040513d8b823e3d90fd5b6147ad9198505f90611d86565b5f965f6144ea565b5050505050505050600190565b5f96506144a0565b9150506020813d6020116147f8575b816147e660209383611d86565b81010312610c4957518861449a61448f565b3d91506147d9565b90506020813d60201161482a575b8161481b60209383611d86565b81010312610c4957515f614468565b3d915061480e565b604051630240bc6b60e21b815290606082600481845afa908115610c3e575f925f92614922575b506001600160701b038316151580614910575b614878575b5050614443565b604051630dfe168160e01b8152939950602090849060049082905afa928315610c3e576001600160701b036123db928a6148da9683945f916148f1575b506001600160a01b0316149485156148ea5780955b156148e357505b16921687611e2b565b955f8080614871565b90506148d1565b81956148ca565b61490a915060203d60201161279f576127918183611d86565b5f6148b5565b506001600160701b038216151561486c565b909250614947915060603d606011614950575b61493f8183611d86565b810190614249565b5090915f614859565b503d614935565b61497191975060203d60201161279f576127918183611d86565b955f614431565b61499291975060203d60201161279f576127918183611d86565b955f6143ee565b505050505050600190565b8095505f9794919693929752600960205262ffffff60405f205460081c16956127106149d260045483611e2b565b0490151580614b41575b614b39575b7f00000000000000000000000000000000000000000000000000000000000000006001600160a01b031696614a178989896150ae565b60405191610100830183811067ffffffffffffffff82111761169757604090815288845260208085018981528583019485523060608701908152426080880190815260a088018f815260c089019687525f60e08a01818152965163414bf38960e01b815299516001600160a01b0390811660048c01529451851660248b0152975162ffffff1660448a01529151831660648901525160848801525160a4870152925160c4860152905190911660e48401529082906101049082908b5af15f9181614b05575b50614af4575050505050614af0935061513f565b5f90565b9295509295509250915f8080614394565b9091506020813d602011614b31575b81614b2160209383611d86565b81010312610c495751905f614adc565b3d9150614b14565b5060016149e1565b5080156149dc565b5050505050505050505f90565b1090505f80614387565b60405163c45a015560e01b81526020816004817f00000000000000000000000000000000000000000000000000000000000000006001600160a01b03165afa8015610c3e578c602091614bef935f91614d27575b508d60405180958194829363e6a4390560e01b845260048401909291602090604083019460018060a01b0316835260018060a01b0316910152565b03916001600160a01b03165afa908115610c3e575f91614d08575b506001600160a01b03169081614c225750505f61437e565b909160405190630240bc6b60e21b8252606082600481875afa908115610c3e575f925f92614ce3575b506001600160701b038316151580614cd1575b15614cc6575060206004939460405194858092630dfe168160e01b82525afa928315610c3e576001600160701b036123db928e614cc09683945f916148f157506001600160a01b0316149485156148ea578095156148e3575016921687611e2b565b9061437e565b93505050505f61437e565b506001600160701b0382161515614c5e565b909250614cff915060603d6060116149505761493f8183611d86565b5090915f614c4b565b614d21915060203d60201161279f576127918183611d86565b5f614c0a565b614d3e9150833d851161279f576127918183611d86565b5f614bb4565b50841515614379565b835f52600960205262ffffff60405f205460081c1680614d6e575b5061436f565b604051630b4c774160e11b815260048101869052602481018d9052604481018290526020816064817f00000000000000000000000000000000000000000000000000000000000000006001600160a01b03165afa908115610c3e575f91614f1d575b506001600160a01b03169182614de7575b50614d68565b604051633850c7bd60e01b81529260e084600481845afa938415610c3e575f94614e88575b506001600160a01b038416614e22575b50614de1565b60049395975060209192945060405193848092630dfe168160e01b82525afa8015610c3e57614e5a9488935f92614e67575b50614fe1565b918215155f808080614e1c565b614e8191925060203d60201161279f576127918183611d86565b905f614e54565b90935060e0813d60e011614f15575b81614ea460e09383611d86565b81010312610c49578051906001600160a01b0382168203610c495760208101518060020b03610c495760c081614edf6040614f0d9401614226565b50614eec60608201614226565b50614ef960808201614226565b50614f0660a08201613848565b5001611e5c565b50925f614e0c565b3d9150614e97565b614f36915060203d60201161279f576127918183611d86565b5f614dd0565b90506020823d602011614f6a575b81614f5760209383611d86565b81010312610c495761432a915190614320565b3d9150614f4a565b505f9361432c565b9150506020813d602011614fa7575b81614f9660209383611d86565b81010312610c49578190515f6142f4565b3d9150614f89565b90506020813d602011614fd9575b81614fca60209383611d86565b81010312610c4957515f6142ce565b3d9150614fbd565b90929182159182801561509d575b615093576001600160a01b039081169491811691160361504c57508161501c62ffffff9361502493611e2b565b60601c611e2b565b60601c915b16620f42400390620f42408211611a6957620f42409161504891611e2b565b0490565b8160601b918204600160601b141715611a69578161506991611ef7565b8060601b90808204600160601b1490151715611a695762ffffff9161508d91611ef7565b91615029565b5050505050505f90565b506001600160a01b03811615614fef565b604051636eb1769f60e11b81523060048201526001600160a01b0383166024820152909190602081806044810103816001600160a01b0387165afa908115610c3e575f9161510b575b50612e179361510591611e3e565b916151f9565b90506020813d602011615137575b8161512660209383611d86565b81010312610c495751612e176150f7565b3d9150615119565b604051636eb1769f60e11b81523060048201526001600160a01b0383166024820152929392909190602081806044810103816001600160a01b0387165afa908115610c3e575f916151c7575b508481106151a05793612e17939403916151f9565b63e570110f60e01b5f9081526001600160a01b039092166004526024526044849052606490fd5b90506020813d6020116151f1575b816151e260209383611d86565b81010312610c4957515f61518b565b3d91506151d5565b916040519163095ea7b360e01b5f5260018060a01b031691826004528160245260205f60448180885af19060015f51148216156152df575b6040521561523e57505050565b60405163095ea7b360e01b5f52826004525f60245260205f60448180885af19060015f51148216156152c7575b604052156152a9576040519163095ea7b360e01b5f5260045260245260205f60448180865af19060015f511482161561383057604052156132f75750565b635274afe760e01b5f9081526001600160a01b038416600452602490fd5b90600181151661332f57843b15153d1516169061526b565b90843b15153d1516169061523156fe91ff44988a22709bbd2cf4d0699563d4e7f45b09b05af12eb22457bbc73ea1a630644e72e131a029b85045b68181585d2833e84879b9709143e1f593f00000010bbdb11cc7513eaa09125ea7ff35df14461e8493206ccfc17e6038ef80c897cb9b779b17422d0df92223018b32b4d1fa46e071723d6817e2486d003becc55f00a26469706673582212208a9f232f923ed9ddb80b6debaf549fd8ab23746e1b7e852432c56eeba5593ee564736f6c634300081c003360806040523461041957610c896040813803918261001c8161041d565b9384928339810103126104195761003e602061003783610442565b9201610442565b90610049604061041d565b91600a83526921b630bb902a37b5b2b760b11b602084015261006b604061041d565b6004815263434c415760e01b602082015283519092906001600160401b03811161032a57600354600181811c9116801561040f575b602082101461030c57601f81116103ac575b50602094601f8211600114610349579481929394955f9261033e575b50508160011b915f199060031b1c1916176003555b82516001600160401b03811161032a57600454600181811c91168015610320575b602082101461030c57601f81116102a9575b506020601f821160011461024657819293945f9261023b575b50508160011b915f199060031b1c1916176004555b6001600160a01b03168015610228576002546a084595161401484a000000810180911161021457600255805f525f60205260405f206a084595161401484a00000081540190555f7fddf252ad1be2c89b69c2b068fc378daa952ba7f163c4a11628f55a4df523b3ef60206040516a084595161401484a0000008152a3600580546001600160a01b0319166001600160a01b03929092169182179055604051905f7f02ad39e5173f89bdd5497202bd74024b5da045106c3163ddb078d2e89ff6d6de8180a361083290816104578239f35b634e487b7160e01b5f52601160045260245ffd5b63ec442f0560e01b5f525f60045260245ffd5b015190505f8061012f565b601f1982169060045f52805f20915f5b81811061029157509583600195969710610279575b505050811b01600455610144565b01515f1960f88460031b161c191690555f808061026b565b9192602060018192868b015181550194019201610256565b60045f527f8a35acfbc15ff81a39ae7d344fd709f28e8600b4aa8c65c6b64bfe7fe36bd19b601f830160051c81019160208410610302575b601f0160051c01905b8181106102f75750610116565b5f81556001016102ea565b90915081906102e1565b634e487b7160e01b5f52602260045260245ffd5b90607f1690610104565b634e487b7160e01b5f52604160045260245ffd5b015190505f806100ce565b601f1982169560035f52805f20915f5b8881106103945750836001959697981061037c575b505050811b016003556100e3565b01515f1960f88460031b161c191690555f808061036e565b91926020600181928685015181550194019201610359565b60035f527fc2575a0e9e593c00f959f8c92f12db2869c3395a3b0502d05e2516446f71f85b601f830160051c81019160208410610405575b601f0160051c01905b8181106103fa57506100b2565b5f81556001016103ed565b90915081906103e4565b90607f16906100a0565b5f80fd5b6040519190601f01601f191682016001600160401b0381118382101761032a57604052565b51906001600160a01b03821682036104195756fe6080806040526004361015610012575f80fd5b5f3560e01c90816306fdde031461055357508063075461721461052b578063095ea7b3146104a957806318160ddd1461048c57806323b872dd146103ad578063313ce5671461039257806332cb6b0c1461036c57806340c10f191461034557806370a082311461030e57806395d89b41146101f3578063a9059cbb146101c2578063ca7df92c1461019d578063dd62ed3e1461014d5763fe99ad5a146100b6575f80fd5b34610149576020366003190112610149576100cf61064c565b6005546001600160a01b038116913383900361013a576001600160a01b031691821561012b5782907f02ad39e5173f89bdd5497202bd74024b5da045106c3163ddb078d2e89ff6d6de5f80a36001600160a01b03191617600555005b63d92e233d60e01b5f5260045ffd5b633e34a41b60e21b5f5260045ffd5b5f80fd5b346101495760403660031901126101495761016661064c565b61016e610662565b6001600160a01b039182165f908152600160209081526040808320949093168252928352819020549051908152f35b34610149575f3660031901126101495760206040516a084595161401484a0000008152f35b34610149576040366003190112610149576101e86101de61064c565b6024359033610752565b602060405160018152f35b34610149575f366003190112610149576040515f6004548060011c90600181168015610304575b6020831081146102f0578285529081156102d4575060011461027f575b50819003601f01601f191681019067ffffffffffffffff82118183101761026b5761026782918260405282610622565b0390f35b634e487b7160e01b5f52604160045260245ffd5b905060045f527f8a35acfbc15ff81a39ae7d344fd709f28e8600b4aa8c65c6b64bfe7fe36bd19b5f905b8282106102be57506020915082010182610237565b60018160209254838588010152019101906102a9565b90506020925060ff191682840152151560051b82010182610237565b634e487b7160e01b5f52602260045260245ffd5b91607f169161021a565b34610149576020366003190112610149576001600160a01b0361032f61064c565b165f525f602052602060405f2054604051908152f35b346101495760403660031901126101495761036a61036161064c565b60243590610699565b005b34610149575f3660031901126101495760206040516b033b2e3c9fd0803ce80000008152f35b34610149575f36600319011261014957602060405160128152f35b34610149576060366003190112610149576103c661064c565b6103ce610662565b6001600160a01b0382165f818152600160209081526040808320338452909152902054909260443592915f19811061040c575b506101e89350610752565b83811061047157841561045e57331561044b576101e8945f52600160205260405f2060018060a01b0333165f526020528360405f209103905584610401565b634a1406b160e11b5f525f60045260245ffd5b63e602df0560e01b5f525f60045260245ffd5b8390637dc7a0d960e11b5f523360045260245260445260645ffd5b34610149575f366003190112610149576020600254604051908152f35b34610149576040366003190112610149576104c261064c565b60243590331561045e576001600160a01b031690811561044b57335f52600160205260405f20825f526020528060405f20556040519081527f8c5be1e5ebec7d5bd14f71427d1e84f3dd0314c0f7b2291e5b200ac8c7c3b92560203392a3602060405160018152f35b34610149575f366003190112610149576005546040516001600160a01b039091168152602090f35b34610149575f366003190112610149575f6003548060011c90600181168015610618575b6020831081146102f0578285529081156102d457506001146105c35750819003601f01601f191681019067ffffffffffffffff82118183101761026b5761026782918260405282610622565b905060035f527fc2575a0e9e593c00f959f8c92f12db2869c3395a3b0502d05e2516446f71f85b5f905b82821061060257506020915082010182610237565b60018160209254838588010152019101906105ed565b91607f1691610577565b602060409281835280519182918282860152018484015e5f828201840152601f01601f1916010190565b600435906001600160a01b038216820361014957565b602435906001600160a01b038216820361014957565b9190820180921161068557565b634e487b7160e01b5f52601160045260245ffd5b6005546001600160a01b0316330361013a57811561074e576b033b2e3c9fd0803ce80000006106ca83600254610678565b1161073f576001600160a01b031690811561072c577fddf252ad1be2c89b69c2b068fc378daa952ba7f163c4a11628f55a4df523b3ef6020826107105f94600254610678565b60025584845283825260408420818154019055604051908152a3565b63ec442f0560e01b5f525f60045260245ffd5b63d05cb60960e01b5f5260045ffd5b5050565b6001600160a01b03169081156107e9576001600160a01b031691821561072c57815f525f60205260405f20548181106107d057817fddf252ad1be2c89b69c2b068fc378daa952ba7f163c4a11628f55a4df523b3ef92602092855f525f84520360405f2055845f525f825260405f20818154019055604051908152a3565b8263391434e360e21b5f5260045260245260445260645ffd5b634b637e8f60e11b5f525f60045260245ffdfea264697066735822122037e0811dd158fa95cea7a042e9b4d92aa74330d5020d3f06701a0492e8b60cda64736f6c634300081c0033",
  "linkReferences": {},
  "deployedLinkReferences": {},
  "immutableReferences": {
    "2116": [
      {
        "length": 32,
        "start": 1441
      },
      {
        "length": 32,
        "start": 17198
      }
    ],
    "2119": [
      {
        "length": 32,
        "start": 908
      },
      {
        "length": 32,
        "start": 1077
      },
      {
        "length": 32,
        "start": 8723
      },
      {
        "length": 32,
        "start": 14731
      },
      {
        "length": 32,
        "start": 15522
      },
      {
        "length": 32,
        "start": 17036
      }
    ],
    "2122": [
      {
        "length": 32,
        "start": 520
      },
      {
        "length": 32,
        "start": 5034
      },
      {
        "length": 32,
        "start": 10750
      },
      {
        "length": 32,
        "start": 11060
      },
      {
        "length": 32,
        "start": 13140
      },
      {
        "length": 32,
        "start": 13781
      }
    ],
    "2125": [
      {
        "length": 32,
        "start": 5579
      },
      {
        "length": 32,
        "start": 13208
      },
      {
        "length": 32,
        "start": 13566
      },
      {
        "length": 32,
        "start": 14075
      }
    ],
    "2128": [
      {
        "length": 32,
        "start": 977
      },
      {
        "length": 32,
        "start": 18915
      }
    ],
    "2131": [
      {
        "length": 32,
        "start": 7264
      },
      {
        "length": 32,
        "start": 17325
      },
      {
        "length": 32,
        "start": 19317
      }
    ],
    "2134": [
      {
        "length": 32,
        "start": 2109
      },
      {
        "length": 32,
        "start": 19864
      }
    ],
    "2137": [
      {
        "length": 32,
        "start": 723
      },
      {
        "length": 32,
        "start": 2805
      }
    ],
    "2140": [
      {
        "length": 32,
        "start": 3910
      },
      {
        "length": 32,
        "start": 4476
      },
      {
        "length": 32,
        "start": 10645
      }
    ],
    "2143": [
      {
        "length": 32,
        "start": 2321
      },
      {
        "length": 32,
        "start": 4080
      },
      {
        "length": 32,
        "start": 7997
      },
      {
        "length": 32,
        "start": 10227
      }
    ]
  },
  "inputSourceName": "project/contracts/ClawCore.sol",
  "buildInfoId": "solc-0_8_28-b0b33efae99d20a14ac043a1eef6e786faf1bbe2"
}