{
  "_format": "hh3-artifact-1",
  "contractName": "ClawMinerProtocol",
  "sourceName": "contracts/ClawMinerProtocol.sol",
  "abi": [
    {
      "inputs": [
        {
          "internalType": "address",
          "name": "initialOwner",
          "type": "address"
        },
        {
          "internalType": "address",
          "name": "_usdcToken",
          "type": "address"
        },
        {
          "internalType": "address",
          "name": "_ctf",
          "type": "address"
        }
      ],
      "stateMutability": "nonpayable",
      "type": "constructor"
    },
    {
      "inputs": [],
      "name": "AlreadyClaimed",
      "type": "error"
    },
    {
      "inputs": [],
      "name": "AlreadyCommitted",
      "type": "error"
    },
    {
      "inputs": [],
      "name": "AlreadyRevealed",
      "type": "error"
    },
    {
      "inputs": [],
      "name": "CTFNotResolved",
      "type": "error"
    },
    {
      "inputs": [],
      "name": "CommitWindowClosed",
      "type": "error"
    },
    {
      "inputs": [
        {
          "internalType": "address",
          "name": "spender",
          "type": "address"
        },
        {
          "internalType": "uint256",
          "name": "allowance",
          "type": "uint256"
        },
        {
          "internalType": "uint256",
          "name": "needed",
          "type": "uint256"
        }
      ],
      "name": "ERC20InsufficientAllowance",
      "type": "error"
    },
    {
      "inputs": [
        {
          "internalType": "address",
          "name": "sender",
          "type": "address"
        },
        {
          "internalType": "uint256",
          "name": "balance",
          "type": "uint256"
        },
        {
          "internalType": "uint256",
          "name": "needed",
          "type": "uint256"
        }
      ],
      "name": "ERC20InsufficientBalance",
      "type": "error"
    },
    {
      "inputs": [
        {
          "internalType": "address",
          "name": "approver",
          "type": "address"
        }
      ],
      "name": "ERC20InvalidApprover",
      "type": "error"
    },
    {
      "inputs": [
        {
          "internalType": "address",
          "name": "receiver",
          "type": "address"
        }
      ],
      "name": "ERC20InvalidReceiver",
      "type": "error"
    },
    {
      "inputs": [
        {
          "internalType": "address",
          "name": "sender",
          "type": "address"
        }
      ],
      "name": "ERC20InvalidSender",
      "type": "error"
    },
    {
      "inputs": [
        {
          "internalType": "address",
          "name": "spender",
          "type": "address"
        }
      ],
      "name": "ERC20InvalidSpender",
      "type": "error"
    },
    {
      "inputs": [],
      "name": "HasWinners",
      "type": "error"
    },
    {
      "inputs": [],
      "name": "HashMismatch",
      "type": "error"
    },
    {
      "inputs": [],
      "name": "IncorrectStake",
      "type": "error"
    },
    {
      "inputs": [],
      "name": "InsufficientReputation",
      "type": "error"
    },
    {
      "inputs": [],
      "name": "InsufficientWinRate",
      "type": "error"
    },
    {
      "inputs": [],
      "name": "InvalidAmount",
      "type": "error"
    },
    {
      "inputs": [],
      "name": "InvalidTime",
      "type": "error"
    },
    {
      "inputs": [],
      "name": "NoBountyLeft",
      "type": "error"
    },
    {
      "inputs": [],
      "name": "NotCommitted",
      "type": "error"
    },
    {
      "inputs": [],
      "name": "NotCreator",
      "type": "error"
    },
    {
      "inputs": [
        {
          "internalType": "address",
          "name": "owner",
          "type": "address"
        }
      ],
      "name": "OwnableInvalidOwner",
      "type": "error"
    },
    {
      "inputs": [
        {
          "internalType": "address",
          "name": "account",
          "type": "address"
        }
      ],
      "name": "OwnableUnauthorizedAccount",
      "type": "error"
    },
    {
      "inputs": [],
      "name": "ReentrancyGuardReentrantCall",
      "type": "error"
    },
    {
      "inputs": [],
      "name": "RevealWindowClosed",
      "type": "error"
    },
    {
      "inputs": [],
      "name": "RevealWindowOpen",
      "type": "error"
    },
    {
      "inputs": [
        {
          "internalType": "address",
          "name": "token",
          "type": "address"
        }
      ],
      "name": "SafeERC20FailedOperation",
      "type": "error"
    },
    {
      "inputs": [],
      "name": "TaskFull",
      "type": "error"
    },
    {
      "inputs": [],
      "name": "TaskNotResolved",
      "type": "error"
    },
    {
      "anonymous": false,
      "inputs": [
        {
          "indexed": true,
          "internalType": "address",
          "name": "owner",
          "type": "address"
        },
        {
          "indexed": true,
          "internalType": "address",
          "name": "spender",
          "type": "address"
        },
        {
          "indexed": false,
          "internalType": "uint256",
          "name": "value",
          "type": "uint256"
        }
      ],
      "name": "Approval",
      "type": "event"
    },
    {
      "anonymous": false,
      "inputs": [
        {
          "indexed": true,
          "internalType": "uint256",
          "name": "taskId",
          "type": "uint256"
        },
        {
          "indexed": true,
          "internalType": "address",
          "name": "creator",
          "type": "address"
        },
        {
          "indexed": false,
          "internalType": "uint256",
          "name": "usdcRefunded",
          "type": "uint256"
        }
      ],
      "name": "CreatorRefunded",
      "type": "event"
    },
    {
      "anonymous": false,
      "inputs": [
        {
          "indexed": true,
          "internalType": "address",
          "name": "previousOwner",
          "type": "address"
        },
        {
          "indexed": true,
          "internalType": "address",
          "name": "newOwner",
          "type": "address"
        }
      ],
      "name": "OwnershipTransferred",
      "type": "event"
    },
    {
      "anonymous": false,
      "inputs": [
        {
          "indexed": true,
          "internalType": "uint256",
          "name": "taskId",
          "type": "uint256"
        },
        {
          "indexed": true,
          "internalType": "address",
          "name": "miner",
          "type": "address"
        },
        {
          "indexed": false,
          "internalType": "bool",
          "name": "isWinner",
          "type": "bool"
        },
        {
          "indexed": false,
          "internalType": "uint256",
          "name": "usdcReward",
          "type": "uint256"
        },
        {
          "indexed": false,
          "internalType": "uint256",
          "name": "clawReward",
          "type": "uint256"
        },
        {
          "indexed": false,
          "internalType": "uint256",
          "name": "reputationGained",
          "type": "uint256"
        }
      ],
      "name": "RewardClaimed",
      "type": "event"
    },
    {
      "anonymous": false,
      "inputs": [
        {
          "indexed": true,
          "internalType": "uint256",
          "name": "taskId",
          "type": "uint256"
        },
        {
          "indexed": true,
          "internalType": "address",
          "name": "miner",
          "type": "address"
        },
        {
          "indexed": false,
          "internalType": "bytes32",
          "name": "commitHash",
          "type": "bytes32"
        }
      ],
      "name": "TaskCommitted",
      "type": "event"
    },
    {
      "anonymous": false,
      "inputs": [
        {
          "indexed": true,
          "internalType": "uint256",
          "name": "taskId",
          "type": "uint256"
        },
        {
          "indexed": true,
          "internalType": "address",
          "name": "creator",
          "type": "address"
        },
        {
          "indexed": true,
          "internalType": "bytes32",
          "name": "conditionId",
          "type": "bytes32"
        },
        {
          "indexed": false,
          "internalType": "uint256",
          "name": "bountyAmount",
          "type": "uint256"
        }
      ],
      "name": "TaskCreated",
      "type": "event"
    },
    {
      "anonymous": false,
      "inputs": [
        {
          "indexed": true,
          "internalType": "uint256",
          "name": "taskId",
          "type": "uint256"
        },
        {
          "indexed": true,
          "internalType": "address",
          "name": "miner",
          "type": "address"
        },
        {
          "indexed": false,
          "internalType": "uint8",
          "name": "outcomeIndex",
          "type": "uint8"
        }
      ],
      "name": "TaskRevealed",
      "type": "event"
    },
    {
      "anonymous": false,
      "inputs": [
        {
          "indexed": true,
          "internalType": "address",
          "name": "from",
          "type": "address"
        },
        {
          "indexed": true,
          "internalType": "address",
          "name": "to",
          "type": "address"
        },
        {
          "indexed": false,
          "internalType": "uint256",
          "name": "value",
          "type": "uint256"
        }
      ],
      "name": "Transfer",
      "type": "event"
    },
    {
      "inputs": [],
      "name": "BASE_REPUTATION",
      "outputs": [
        {
          "internalType": "uint256",
          "name": "",
          "type": "uint256"
        }
      ],
      "stateMutability": "view",
      "type": "function"
    },
    {
      "inputs": [],
      "name": "BASE_REWARD",
      "outputs": [
        {
          "internalType": "uint256",
          "name": "",
          "type": "uint256"
        }
      ],
      "stateMutability": "view",
      "type": "function"
    },
    {
      "inputs": [],
      "name": "LOSER_REWARD",
      "outputs": [
        {
          "internalType": "uint256",
          "name": "",
          "type": "uint256"
        }
      ],
      "stateMutability": "view",
      "type": "function"
    },
    {
      "inputs": [],
      "name": "REVEAL_WINDOW",
      "outputs": [
        {
          "internalType": "uint40",
          "name": "",
          "type": "uint40"
        }
      ],
      "stateMutability": "view",
      "type": "function"
    },
    {
      "inputs": [
        {
          "internalType": "address",
          "name": "owner",
          "type": "address"
        },
        {
          "internalType": "address",
          "name": "spender",
          "type": "address"
        }
      ],
      "name": "allowance",
      "outputs": [
        {
          "internalType": "uint256",
          "name": "",
          "type": "uint256"
        }
      ],
      "stateMutability": "view",
      "type": "function"
    },
    {
      "inputs": [
        {
          "internalType": "address",
          "name": "spender",
          "type": "address"
        },
        {
          "internalType": "uint256",
          "name": "value",
          "type": "uint256"
        }
      ],
      "name": "approve",
      "outputs": [
        {
          "internalType": "bool",
          "name": "",
          "type": "bool"
        }
      ],
      "stateMutability": "nonpayable",
      "type": "function"
    },
    {
      "inputs": [
        {
          "internalType": "address",
          "name": "account",
          "type": "address"
        }
      ],
      "name": "balanceOf",
      "outputs": [
        {
          "internalType": "uint256",
          "name": "",
          "type": "uint256"
        }
      ],
      "stateMutability": "view",
      "type": "function"
    },
    {
      "inputs": [
        {
          "internalType": "uint256",
          "name": "taskId",
          "type": "uint256"
        }
      ],
      "name": "claimReward",
      "outputs": [],
      "stateMutability": "nonpayable",
      "type": "function"
    },
    {
      "inputs": [
        {
          "internalType": "uint256",
          "name": "taskId",
          "type": "uint256"
        },
        {
          "internalType": "bytes32",
          "name": "commitHash",
          "type": "bytes32"
        }
      ],
      "name": "commitTask",
      "outputs": [],
      "stateMutability": "payable",
      "type": "function"
    },
    {
      "inputs": [
        {
          "internalType": "bytes32",
          "name": "conditionId",
          "type": "bytes32"
        },
        {
          "internalType": "uint40",
          "name": "commitEndTime",
          "type": "uint40"
        },
        {
          "internalType": "uint32",
          "name": "maxMiners",
          "type": "uint32"
        },
        {
          "internalType": "uint256",
          "name": "minReputation",
          "type": "uint256"
        },
        {
          "internalType": "uint16",
          "name": "minWinRateBps",
          "type": "uint16"
        },
        {
          "internalType": "uint256",
          "name": "requiredStake",
          "type": "uint256"
        },
        {
          "internalType": "uint256",
          "name": "bountyAmount",
          "type": "uint256"
        }
      ],
      "name": "createTask",
      "outputs": [
        {
          "internalType": "uint256",
          "name": "",
          "type": "uint256"
        }
      ],
      "stateMutability": "nonpayable",
      "type": "function"
    },
    {
      "inputs": [],
      "name": "ctf",
      "outputs": [
        {
          "internalType": "contract IConditionalTokens",
          "name": "",
          "type": "address"
        }
      ],
      "stateMutability": "view",
      "type": "function"
    },
    {
      "inputs": [],
      "name": "decimals",
      "outputs": [
        {
          "internalType": "uint8",
          "name": "",
          "type": "uint8"
        }
      ],
      "stateMutability": "view",
      "type": "function"
    },
    {
      "inputs": [
        {
          "internalType": "address",
          "name": "miner",
          "type": "address"
        }
      ],
      "name": "getMinerReputation",
      "outputs": [
        {
          "internalType": "uint32",
          "name": "totalCommits",
          "type": "uint32"
        },
        {
          "internalType": "uint32",
          "name": "correctPredictions",
          "type": "uint32"
        },
        {
          "internalType": "uint256",
          "name": "reputationScore",
          "type": "uint256"
        },
        {
          "internalType": "uint256",
          "name": "winRateBps",
          "type": "uint256"
        }
      ],
      "stateMutability": "view",
      "type": "function"
    },
    {
      "inputs": [
        {
          "internalType": "address",
          "name": "",
          "type": "address"
        }
      ],
      "name": "minerStats",
      "outputs": [
        {
          "internalType": "uint256",
          "name": "reputationScore",
          "type": "uint256"
        },
        {
          "internalType": "uint32",
          "name": "totalCommits",
          "type": "uint32"
        },
        {
          "internalType": "uint32",
          "name": "correctPredictions",
          "type": "uint32"
        }
      ],
      "stateMutability": "view",
      "type": "function"
    },
    {
      "inputs": [
        {
          "internalType": "uint256",
          "name": "",
          "type": "uint256"
        },
        {
          "internalType": "address",
          "name": "",
          "type": "address"
        }
      ],
      "name": "minerTaskStates",
      "outputs": [
        {
          "internalType": "bytes32",
          "name": "commitHash",
          "type": "bytes32"
        },
        {
          "internalType": "bool",
          "name": "hasCommitted",
          "type": "bool"
        },
        {
          "internalType": "bool",
          "name": "hasRevealed",
          "type": "bool"
        },
        {
          "internalType": "bool",
          "name": "hasClaimed",
          "type": "bool"
        },
        {
          "internalType": "uint8",
          "name": "revealedOutcome",
          "type": "uint8"
        }
      ],
      "stateMutability": "view",
      "type": "function"
    },
    {
      "inputs": [],
      "name": "name",
      "outputs": [
        {
          "internalType": "string",
          "name": "",
          "type": "string"
        }
      ],
      "stateMutability": "view",
      "type": "function"
    },
    {
      "inputs": [],
      "name": "nextTaskId",
      "outputs": [
        {
          "internalType": "uint256",
          "name": "",
          "type": "uint256"
        }
      ],
      "stateMutability": "view",
      "type": "function"
    },
    {
      "inputs": [],
      "name": "owner",
      "outputs": [
        {
          "internalType": "address",
          "name": "",
          "type": "address"
        }
      ],
      "stateMutability": "view",
      "type": "function"
    },
    {
      "inputs": [],
      "name": "protocolFeeBps",
      "outputs": [
        {
          "internalType": "uint256",
          "name": "",
          "type": "uint256"
        }
      ],
      "stateMutability": "view",
      "type": "function"
    },
    {
      "inputs": [
        {
          "internalType": "uint256",
          "name": "taskId",
          "type": "uint256"
        }
      ],
      "name": "refundCreator",
      "outputs": [],
      "stateMutability": "nonpayable",
      "type": "function"
    },
    {
      "inputs": [],
      "name": "renounceOwnership",
      "outputs": [],
      "stateMutability": "nonpayable",
      "type": "function"
    },
    {
      "inputs": [
        {
          "internalType": "uint256",
          "name": "taskId",
          "type": "uint256"
        },
        {
          "internalType": "uint8",
          "name": "outcomeIndex",
          "type": "uint8"
        },
        {
          "internalType": "bytes32",
          "name": "salt",
          "type": "bytes32"
        }
      ],
      "name": "revealPrediction",
      "outputs": [],
      "stateMutability": "nonpayable",
      "type": "function"
    },
    {
      "inputs": [
        {
          "internalType": "uint256",
          "name": "_newFeeBips",
          "type": "uint256"
        }
      ],
      "name": "setProtocolFeeBps",
      "outputs": [],
      "stateMutability": "nonpayable",
      "type": "function"
    },
    {
      "inputs": [],
      "name": "symbol",
      "outputs": [
        {
          "internalType": "string",
          "name": "",
          "type": "string"
        }
      ],
      "stateMutability": "view",
      "type": "function"
    },
    {
      "inputs": [
        {
          "internalType": "uint256",
          "name": "",
          "type": "uint256"
        }
      ],
      "name": "tasks",
      "outputs": [
        {
          "internalType": "address",
          "name": "creator",
          "type": "address"
        },
        {
          "internalType": "uint40",
          "name": "commitEndTime",
          "type": "uint40"
        },
        {
          "internalType": "uint40",
          "name": "revealEndTime",
          "type": "uint40"
        },
        {
          "internalType": "uint8",
          "name": "winningOutcome",
          "type": "uint8"
        },
        {
          "internalType": "bool",
          "name": "isResolved",
          "type": "bool"
        },
        {
          "internalType": "bytes32",
          "name": "conditionId",
          "type": "bytes32"
        },
        {
          "internalType": "uint256",
          "name": "bountyAmount",
          "type": "uint256"
        },
        {
          "internalType": "uint256",
          "name": "minReputation",
          "type": "uint256"
        },
        {
          "internalType": "uint256",
          "name": "requiredStake",
          "type": "uint256"
        },
        {
          "internalType": "uint32",
          "name": "maxMiners",
          "type": "uint32"
        },
        {
          "internalType": "uint32",
          "name": "currentMiners",
          "type": "uint32"
        },
        {
          "internalType": "uint32",
          "name": "totalRevealed",
          "type": "uint32"
        },
        {
          "internalType": "uint32",
          "name": "totalCorrect",
          "type": "uint32"
        },
        {
          "internalType": "uint16",
          "name": "minWinRateBps",
          "type": "uint16"
        }
      ],
      "stateMutability": "view",
      "type": "function"
    },
    {
      "inputs": [],
      "name": "totalSupply",
      "outputs": [
        {
          "internalType": "uint256",
          "name": "",
          "type": "uint256"
        }
      ],
      "stateMutability": "view",
      "type": "function"
    },
    {
      "inputs": [
        {
          "internalType": "address",
          "name": "to",
          "type": "address"
        },
        {
          "internalType": "uint256",
          "name": "value",
          "type": "uint256"
        }
      ],
      "name": "transfer",
      "outputs": [
        {
          "internalType": "bool",
          "name": "",
          "type": "bool"
        }
      ],
      "stateMutability": "nonpayable",
      "type": "function"
    },
    {
      "inputs": [
        {
          "internalType": "address",
          "name": "from",
          "type": "address"
        },
        {
          "internalType": "address",
          "name": "to",
          "type": "address"
        },
        {
          "internalType": "uint256",
          "name": "value",
          "type": "uint256"
        }
      ],
      "name": "transferFrom",
      "outputs": [
        {
          "internalType": "bool",
          "name": "",
          "type": "bool"
        }
      ],
      "stateMutability": "nonpayable",
      "type": "function"
    },
    {
      "inputs": [
        {
          "internalType": "address",
          "name": "newOwner",
          "type": "address"
        }
      ],
      "name": "transferOwnership",
      "outputs": [],
      "stateMutability": "nonpayable",
      "type": "function"
    },
    {
      "inputs": [],
      "name": "usdcToken",
      "outputs": [
        {
          "internalType": "contract IERC20",
          "name": "",
          "type": "address"
        }
      ],
      "stateMutability": "view",
      "type": "function"
    },
    {
      "inputs": [
        {
          "internalType": "address payable",
          "name": "to",
          "type": "address"
        }
      ],
      "name": "withdrawFees",
      "outputs": [],
      "stateMutability": "nonpayable",
      "type": "function"
    },
    {
      "inputs": [
        {
          "internalType": "address",
          "name": "to",
          "type": "address"
        }
      ],
      "name": "withdrawUSDCFees",
      "outputs": [],
      "stateMutability": "nonpayable",
      "type": "function"
    }
  ],
  "bytecode": "0x60c06040523461042b57611f176060813803918261001c8161042f565b93849283398101031261042b5761003281610454565b9061004b604061004460208401610454565b9201610454565b610055604061042f565b92600f84526e21b630bba6b4b732b9102a37b5b2b760891b602085015261007c604061042f565b6004815263434c415760e01b6020820152845190946001600160401b03821161032e5760035490600182811c92168015610421575b60208310146103105781601f8493116103b3575b50602090601f831160011461034d575f92610342575b50508160011b915f199060031b1c1916176003555b83516001600160401b03811161032e57600454600181811c91168015610324575b602082101461031057601f81116102ad575b50602094601f821160011461024a579481929394955f9261023f575b50508160011b915f199060031b1c1916176004555b6001600160a01b031691821561022c57600580546001600160a01b03198116851790915560405193906001600160a01b03167f8be0079c531659141344cd1fd0a4f28419497f9722a3daafe3b4186f6b6457e05f80a360017f9b779b17422d0df92223018b32b4d1fa46e071723d6817e2486d003becc55f008190556101f46006556007556001600160a01b039081166080521660a052611aae9081610469823960805181818161025901528181610a9301528181610ebe01528181611387015261182a015260a051818181610544015261125d0152f35b631e4fbdf760e01b5f525f60045260245ffd5b015190505f8061013f565b601f1982169560045f52805f20915f5b8881106102955750836001959697981061027d575b505050811b01600455610154565b01515f1960f88460031b161c191690555f808061026f565b9192602060018192868501518155019401920161025a565b60045f527f8a35acfbc15ff81a39ae7d344fd709f28e8600b4aa8c65c6b64bfe7fe36bd19b601f830160051c81019160208410610306575b601f0160051c01905b8181106102fb5750610123565b5f81556001016102ee565b90915081906102e5565b634e487b7160e01b5f52602260045260245ffd5b90607f1690610111565b634e487b7160e01b5f52604160045260245ffd5b015190505f806100db565b60035f9081528281209350601f198516905b81811061039b5750908460019594939210610383575b505050811b016003556100f0565b01515f1960f88460031b161c191690555f8080610375565b9293602060018192878601518155019501930161035f565b60035f529091507fc2575a0e9e593c00f959f8c92f12db2869c3395a3b0502d05e2516446f71f85b601f840160051c81019160208510610417575b90601f859493920160051c01905b81811061040957506100c5565b5f81558493506001016103fc565b90915081906103ee565b91607f16916100b1565b5f80fd5b6040519190601f01601f191682016001600160401b0381118382101761032e57604052565b51906001600160a01b038216820361042b5756fe6080806040526004361015610012575f80fd5b5f3560e01c90816306fdde031461143857508063095ea7b3146113b657806311eac85514611372578063164e68de146112e957806317e931cf146112cc57806318160ddd146112af57806322009af61461128c57806322a9339f1461124857806323b872dd14611169578063313ce5671461114e57806335659fb81461113157806348850b89146110775780634f2b0d4a1461105c5780635dc6a69414610e5e57806370a0823114610e27578063715018a614610dcc5780638d97767214610ce55780638da5cb5b14610cbd57806395d89b4114610bb9578063a9059cbb14610b88578063ae169a5014610b51578063c0417e5814610b27578063d7ee3bd2146109f1578063dd62ed3e146109a1578063e6682e0614610790578063e9dce19b14610717578063ec002a901461036f578063ec213dd91461031b578063ee2ec9c7146102f9578063f179bbbb14610223578063f2fde38b1461019d5763fdc3d8d71461017c575f80fd5b34610199575f366003190112610199576020600754604051908152f35b5f80fd5b34610199576020366003190112610199576101b661151a565b6101be61188a565b6001600160a01b0316801561021057600580546001600160a01b0319811683179091556001600160a01b03167f8be0079c531659141344cd1fd0a4f28419497f9722a3daafe3b4186f6b6457e05f80a3005b631e4fbdf760e01b5f525f60045260245ffd5b346101995760203660031901126101995761023c61151a565b61024461188a565b6040516370a0823160e01b81523060048201527f0000000000000000000000000000000000000000000000000000000000000000916020826024816001600160a01b0387165afa9182156102ee575f926102ba575b5081156102ab576102a992611993565b005b63162908e360e11b5f5260045ffd5b9091506020813d6020116102e6575b816102d660209383611562565b8101031261019957519083610299565b3d91506102c9565b6040513d5f823e3d90fd5b34610199575f366003190112610199576020604051674563918244f400008152f35b34610199576020366003190112610199576001600160a01b0361033c61151a565b165f52600a602052606060405f2063ffffffff60018254920154604051928352818116602084015260201c166040820152f35b34610199576060366003190112610199576004356024359060ff82169182810361019957815f52600860205260405f2090825f52600960205260405f2060018060a01b0333165f5260205260405f20906001820191825460ff8116156107085760081c60ff166106f95783548060f81c1561051d575b5064ffffffffff845460c81c16421161050e57604051602081019060ff60f81b8460f81b168252604435602182015260218152610423604182611562565b5190209054036104ff576101009063ff00000083549160181b169063ff00ff00191617179055600581019081549063ffffffff60401b61046b63ffffffff8460401c166115e1565b60401b169060ff8263ffffffff60401b19851617918286555460f01c1686146104bf575b85856040519182527fa752b2d0efbef86adde185483d38dce107d452c04c6d0919016f89120df41a4160203393a3005b63ffffffff60601b906104da9060601c63ffffffff166115e1565b60601b16916fffffffffffffffff00000000000000001916171790558280808061048f565b633f4d605360e01b5f5260045ffd5b6340d8392160e11b5f5260045ffd5b600185015460405163f88669bd60e01b815260048101919091529594939291905f876024817f00000000000000000000000000000000000000000000000000000000000000006001600160a01b03165afa9687156102ee575f97610647575b50865115610638575f965f5b815160ff8216101561062a576020611fe08260051b16830101516105cd5760ff1660ff81146105b957600101610588565b634e487b7160e01b5f52601160045260245ffd5b919293949596975050905b6202a30042018042116105b9576001600160f01b0390911660f09290921b60ff60f01b1691909117600160f81b1764ffffffffff60c81b191660c89190911b64ffffffffff60c81b16178455866103e5565b5050959091929394956105d8565b631009f48360e01b5f5260045ffd5b9096503d805f833e6106598183611562565b8101906020818303126101995780519067ffffffffffffffff821161019957019080601f830112156101995781519167ffffffffffffffff83116106e5578260051b90604051936106ad6020840186611562565b845260208085019282010192831161019957602001905b8282106106d557505050958861057c565b81518152602091820191016106c4565b634e487b7160e01b5f52604160045260245ffd5b63a89ac15160e01b5f5260045ffd5b63205e472d60e21b5f5260045ffd5b3461019957604036600319011261019957610730611530565b6004355f52600960205260405f209060018060a01b03165f5260205260a060405f2060ff6001825492015460405192835281811615156020840152818160081c1615156040840152818160101c161515606084015260181c166080820152f35b60403660031901126101995760043560243590805f52600860205260405f2064ffffffffff815460a01c16421015610992576005810190815463ffffffff811663ffffffff8260201c161015610983576004820154340361097457335f52600a60205260405f209160016040519361080785611546565b80548552015463ffffffff81169063ffffffff602086019183835260201c169182604087015215155f146109695761271082029180830461271014901517156105b95760039163ffffffff61085e925116906115c3565b935b519101541161095a5760801c61ffff161161094b575f8281526009602090815260408083203384529091529020600181018054929160ff841661093c576108e193866001925560ff19161790556108c063ffffffff825460201c166115e1565b67ffffffff0000000082549160201b169067ffffffff000000001916179055565b335f52600a602052600160405f200163ffffffff610901818354166115e1565b1663ffffffff198254161790556040519182527f441aeeef4070b29ff1a89600b563b2a8aee6a7833d4ddc662c55a2c9b8d9e0d660203393a3005b6317fd8aab60e31b5f5260045ffd5b634d9c6a8b60e11b5f5260045ffd5b631899c49760e31b5f5260045ffd5b505060035f93610860565b6355fae5f560e01b5f5260045ffd5b631fb94a6d60e31b5f5260045ffd5b6352cc987160e11b5f5260045ffd5b34610199576040366003190112610199576109ba61151a565b6109c2611530565b6001600160a01b039182165f908152600160209081526040808320949093168252928352819020549051908152f35b3461019957602036600319011261019957600435610a0d61195b565b805f52600860205260405f2090815460018060a01b03811690813303610b18578060f81c15610b095760c81c64ffffffffff16421115610afa5763ffffffff600584015460601c16610aeb57600283018054938415610adc57610ab7857f9c80a946d1155e387d3fdb40ebfc6973f2df3f44827577acc768d8b4953c674a945f602095557f0000000000000000000000000000000000000000000000000000000000000000611993565b546040519485526001600160a01b031693a360015f516020611a595f395f51905f5255005b63d0d0e0b960e01b5f5260045ffd5b63d3fd86af60e01b5f5260045ffd5b6365f368e360e11b5f5260045ffd5b6319aee32760e11b5f5260045ffd5b6393687c0b60e01b5f5260045ffd5b3461019957602036600319011261019957600435610b4361188a565b6107d081116102ab57600655005b3461019957602036600319011261019957610b6a61195b565b610b75600435611605565b60015f516020611a595f395f51905f5255005b3461019957604036600319011261019957610bae610ba461151a565b60243590336118b1565b602060405160018152f35b34610199575f366003190112610199576040515f6004548060011c90600181168015610cb3575b602083108114610c9f57828552908115610c7b5750600114610c1d575b610c1983610c0d81850382611562565b604051918291826114f0565b0390f35b91905060045f527f8a35acfbc15ff81a39ae7d344fd709f28e8600b4aa8c65c6b64bfe7fe36bd19b915f905b808210610c6157509091508101602001610c0d610bfd565b919260018160209254838588010152019101909291610c49565b60ff191660208086019190915291151560051b84019091019150610c0d9050610bfd565b634e487b7160e01b5f52602260045260245ffd5b91607f1691610be0565b34610199575f366003190112610199576005546040516001600160a01b039091168152602090f35b34610199576020366003190112610199576004355f5260086020526101c060405f2061ffff815491600181015490600281015460038201549060056004840154930154936040519660018060a01b038116885264ffffffffff8160a01c16602089015264ffffffffff8160c81c16604089015260ff8160f01c16606089015260f81c1515608088015260a087015260c086015260e085015261010084015263ffffffff811661012084015263ffffffff8160201c1661014084015263ffffffff8160401c1661016084015263ffffffff8160601c1661018084015260801c166101a0820152f35b34610199575f36600319011261019957610de461188a565b600580546001600160a01b031981169091555f906001600160a01b03167f8be0079c531659141344cd1fd0a4f28419497f9722a3daafe3b4186f6b6457e08280a3005b34610199576020366003190112610199576001600160a01b03610e4861151a565b165f525f602052602060405f2054604051908152f35b346101995760e03660031901126101995760243564ffffffffff8116600435818303610199576044359163ffffffff8316809303610199576084359361ffff851685036101995760c4359142101561104d5783156102ab5781156102ab577f00000000000000000000000000000000000000000000000000000000000000006040516323b872dd60e01b5f5233600452306024528360445260205f60648180865af19060015f511482161561102c575b6040525f6060521561100c575060065480830290838204036105b957612710900482039182116105b957600754935f1985146105b95760209560018601600755855f526008875260405f2092336bffffffffffffffffffffffff60a01b85541617845585600185015584600285015583549064ffffffffff60a01b9060a01b169064ffffffffff60a01b1916178355600583019163ffffffff19835416178255606435600384015581549061ffff60801b9060801b169061ffff60801b1916179055600460a435910155604051908152827fdff8f5cae2f762f13268570978ff83ba1ee91d349fe7b56be99d8d3093a55e40853393a4604051908152f35b635274afe760e01b5f9081526001600160a01b0391909116600452602490fd5b90600181151661104457823b15153d15161690610f0e565b503d5f823e3d90fd5b6337bf561360e11b5f5260045ffd5b34610199575f36600319011261019957602060405160648152f35b34610199576020366003190112610199576001600160a01b0361109861151a565b165f52600a60205260405f206040516110b081611546565b6040600183549384845201549263ffffffff84169263ffffffff602082019585875260201c1692839101528215155f146111265761271082029382850461271014831517156105b95760809463ffffffff61110d925116906115c3565b915b604051938452602084015260408301526060820152f35b608093505f9161110f565b34610199575f366003190112610199576020600654604051908152f35b34610199575f36600319011261019957602060405160128152f35b346101995760603660031901126101995761118261151a565b61118a611530565b6001600160a01b0382165f818152600160209081526040808320338452909152902054909260443592915f1981106111c8575b50610bae93506118b1565b83811061122d57841561121a57331561120757610bae945f52600160205260405f2060018060a01b0333165f526020528360405f2091039055846111bd565b634a1406b160e11b5f525f60045260245ffd5b63e602df0560e01b5f525f60045260245ffd5b8390637dc7a0d960e11b5f523360045260245260445260645ffd5b34610199575f366003190112610199576040517f00000000000000000000000000000000000000000000000000000000000000006001600160a01b03168152602090f35b34610199575f36600319011261019957602060405168056bc75e2d631000008152f35b34610199575f366003190112610199576020600254604051908152f35b34610199575f3660031901126101995760206040516202a3008152f35b34610199576020366003190112610199576004356001600160a01b038116908190036101995761131761188a565b479081156102ab575f80809381935af161132f611584565b501561133757005b60405162461bcd60e51b8152602060048201526013602482015272115512081d1c985b9cd9995c8819985a5b1959606a1b6044820152606490fd5b34610199575f366003190112610199576040517f00000000000000000000000000000000000000000000000000000000000000006001600160a01b03168152602090f35b34610199576040366003190112610199576113cf61151a565b60243590331561121a576001600160a01b031690811561120757335f52600160205260405f20825f526020528060405f20556040519081527f8c5be1e5ebec7d5bd14f71427d1e84f3dd0314c0f7b2291e5b200ac8c7c3b92560203392a3602060405160018152f35b34610199575f366003190112610199575f6003548060011c906001811680156114e6575b602083108114610c9f57828552908115610c7b575060011461148857610c1983610c0d81850382611562565b91905060035f527fc2575a0e9e593c00f959f8c92f12db2869c3395a3b0502d05e2516446f71f85b915f905b8082106114cc57509091508101602001610c0d610bfd565b9192600181602092548385880101520191019092916114b4565b91607f169161145c565b602060409281835280519182918282860152018484015e5f828201840152601f01601f1916010190565b600435906001600160a01b038216820361019957565b602435906001600160a01b038216820361019957565b6060810190811067ffffffffffffffff8211176106e557604052565b90601f8019910116810190811067ffffffffffffffff8211176106e557604052565b3d156115be573d9067ffffffffffffffff82116106e557604051916115b3601f8201601f191660200184611562565b82523d5f602084013e565b606090565b81156115cd570490565b634e487b7160e01b5f52601260045260245ffd5b63ffffffff1663ffffffff81146105b95760010190565b919082018092116105b957565b805f52600860205260405f209081548060f81c15610b095760c81c64ffffffffff16421115610afa575f8181526009602090815260408083203384529091529020600101805460ff8116156107085760ff8160101c1661187b57620100009062ff000019161780915560ff8160081c16156118765760ff80845460f01c169160181c1614915f905f845f1461185357506005810163ffffffff815460601c1680611806575b505463ffffffff8160401c166064810290808204606414901517156105b95763ffffffff6116dc9260601c16906115c3565b91606483810204918284036105b95782938068056bc75e2d63100000029068056bc75e2d631000008204036105b9576064900492335f52600a60205261174160405f209161173a600184016108c063ffffffff825460201c166115e1565b82546115f8565b905533156117f35760049061175684336119eb565b01548061179c575b506040519485526020850152604084015260608301527f7279b82c3b944ebb9c48c3bf73b6bff183e366d26c82f23c27884e44b6fef24e60803393a3565b5f80808093335af16117ac611584565b50156117b8575f61175e565b60405162461bcd60e51b815260206004820152601360248201527214dd185ad9481c995d1d5c9b8819985a5b1959606a1b6044820152606490fd5b63ec442f0560e01b5f525f60045260245ffd5b61181691935060028301546115c3565b9182611823575b5f6116aa565b61184e83337f0000000000000000000000000000000000000000000000000000000000000000611993565b61181d565b91674563918244f400009133156117f35760049061187184336119eb565b611756565b505050565b630c8d9eab60e31b5f5260045ffd5b6005546001600160a01b0316330361189e57565b63118cdaa760e01b5f523360045260245ffd5b6001600160a01b0316908115611948576001600160a01b03169182156117f357815f525f60205260405f205481811061192f57817fddf252ad1be2c89b69c2b068fc378daa952ba7f163c4a11628f55a4df523b3ef92602092855f525f84520360405f2055845f525f825260405f20818154019055604051908152a3565b8263391434e360e21b5f5260045260245260445260645ffd5b634b637e8f60e11b5f525f60045260245ffd5b60025f516020611a595f395f51905f5254146119845760025f516020611a595f395f51905f5255565b633ee5aeb560e01b5f5260045ffd5b916040519163a9059cbb60e01b5f5260018060a01b031660045260245260205f60448180865af19060015f51148216156119d3575b6040521561100c5750565b90600181151661104457823b15153d151616906119c8565b7fddf252ad1be2c89b69c2b068fc378daa952ba7f163c4a11628f55a4df523b3ef60205f92611a1c856002546115f8565b6002556001600160a01b03169384158414611a435780600254036002555b604051908152a3565b84845283825260408420818154019055611a3a56fe9b779b17422d0df92223018b32b4d1fa46e071723d6817e2486d003becc55f00a2646970667358221220733e6bd0c4f0688a6fe748dff8a1c7a53a100e272eb316f6621320c235637fde64736f6c634300081c0033",
  "linkReferences": {},
  "deployedLinkReferences": {},
  "immutableReferences": {
    "1815": [
      {
        "length": 32,
        "start": 601
      },
      {
        "length": 32,
        "start": 2707
      },
      {
        "length": 32,
        "start": 3774
      },
      {
        "length": 32,
        "start": 4999
      },
      {
        "length": 32,
        "start": 6186
      }
    ],
    "1818": [
      {
        "length": 32,
        "start": 1348
      },
      {
        "length": 32,
        "start": 4701
      }
    ]
  },
  "inputSourceName": "project/contracts/ClawMinerProtocol.sol",
  "buildInfoId": "solc-0_8_28-a909dbc0b04fe49afe605ee993b28b7903a4218e"
}