{
  "_format": "hh3-artifact-1",
  "contractName": "ClawToken",
  "sourceName": "contracts/ClawToken.sol",
  "abi": [
    {
      "inputs": [
        {
          "internalType": "address",
          "name": "initialMintRecipient",
          "type": "address"
        },
        {
          "internalType": "address",
          "name": "initialMinter",
          "type": "address"
        }
      ],
      "stateMutability": "nonpayable",
      "type": "constructor"
    },
    {
      "inputs": [
        {
          "internalType": "address",
          "name": "spender",
          "type": "address"
        },
        {
          "internalType": "uint256",
          "name": "allowance",
          "type": "uint256"
        },
        {
          "internalType": "uint256",
          "name": "needed",
          "type": "uint256"
        }
      ],
      "name": "ERC20InsufficientAllowance",
      "type": "error"
    },
    {
      "inputs": [
        {
          "internalType": "address",
          "name": "sender",
          "type": "address"
        },
        {
          "internalType": "uint256",
          "name": "balance",
          "type": "uint256"
        },
        {
          "internalType": "uint256",
          "name": "needed",
          "type": "uint256"
        }
      ],
      "name": "ERC20InsufficientBalance",
      "type": "error"
    },
    {
      "inputs": [
        {
          "internalType": "address",
          "name": "approver",
          "type": "address"
        }
      ],
      "name": "ERC20InvalidApprover",
      "type": "error"
    },
    {
      "inputs": [
        {
          "internalType": "address",
          "name": "receiver",
          "type": "address"
        }
      ],
      "name": "ERC20InvalidReceiver",
      "type": "error"
    },
    {
      "inputs": [
        {
          "internalType": "address",
          "name": "sender",
          "type": "address"
        }
      ],
      "name": "ERC20InvalidSender",
      "type": "error"
    },
    {
      "inputs": [
        {
          "internalType": "address",
          "name": "spender",
          "type": "address"
        }
      ],
      "name": "ERC20InvalidSpender",
      "type": "error"
    },
    {
      "inputs": [],
      "name": "MaxSupplyReached",
      "type": "error"
    },
    {
      "inputs": [],
      "name": "NotMinter",
      "type": "error"
    },
    {
      "inputs": [],
      "name": "ZeroAddress",
      "type": "error"
    },
    {
      "anonymous": false,
      "inputs": [
        {
          "indexed": true,
          "internalType": "address",
          "name": "owner",
          "type": "address"
        },
        {
          "indexed": true,
          "internalType": "address",
          "name": "spender",
          "type": "address"
        },
        {
          "indexed": false,
          "internalType": "uint256",
          "name": "value",
          "type": "uint256"
        }
      ],
      "name": "Approval",
      "type": "event"
    },
    {
      "anonymous": false,
      "inputs": [
        {
          "indexed": true,
          "internalType": "address",
          "name": "previousMinter",
          "type": "address"
        },
        {
          "indexed": true,
          "internalType": "address",
          "name": "newMinter",
          "type": "address"
        }
      ],
      "name": "MinterTransferred",
      "type": "event"
    },
    {
      "anonymous": false,
      "inputs": [
        {
          "indexed": true,
          "internalType": "address",
          "name": "from",
          "type": "address"
        },
        {
          "indexed": true,
          "internalType": "address",
          "name": "to",
          "type": "address"
        },
        {
          "indexed": false,
          "internalType": "uint256",
          "name": "value",
          "type": "uint256"
        }
      ],
      "name": "Transfer",
      "type": "event"
    },
    {
      "inputs": [],
      "name": "INITIAL_MINT",
      "outputs": [
        {
          "internalType": "uint256",
          "name": "",
          "type": "uint256"
        }
      ],
      "stateMutability": "view",
      "type": "function"
    },
    {
      "inputs": [],
      "name": "MAX_SUPPLY",
      "outputs": [
        {
          "internalType": "uint256",
          "name": "",
          "type": "uint256"
        }
      ],
      "stateMutability": "view",
      "type": "function"
    },
    {
      "inputs": [
        {
          "internalType": "address",
          "name": "owner",
          "type": "address"
        },
        {
          "internalType": "address",
          "name": "spender",
          "type": "address"
        }
      ],
      "name": "allowance",
      "outputs": [
        {
          "internalType": "uint256",
          "name": "",
          "type": "uint256"
        }
      ],
      "stateMutability": "view",
      "type": "function"
    },
    {
      "inputs": [
        {
          "internalType": "address",
          "name": "spender",
          "type": "address"
        },
        {
          "internalType": "uint256",
          "name": "value",
          "type": "uint256"
        }
      ],
      "name": "approve",
      "outputs": [
        {
          "internalType": "bool",
          "name": "",
          "type": "bool"
        }
      ],
      "stateMutability": "nonpayable",
      "type": "function"
    },
    {
      "inputs": [
        {
          "internalType": "address",
          "name": "account",
          "type": "address"
        }
      ],
      "name": "balanceOf",
      "outputs": [
        {
          "internalType": "uint256",
          "name": "",
          "type": "uint256"
        }
      ],
      "stateMutability": "view",
      "type": "function"
    },
    {
      "inputs": [],
      "name": "decimals",
      "outputs": [
        {
          "internalType": "uint8",
          "name": "",
          "type": "uint8"
        }
      ],
      "stateMutability": "view",
      "type": "function"
    },
    {
      "inputs": [
        {
          "internalType": "address",
          "name": "to",
          "type": "address"
        },
        {
          "internalType": "uint256",
          "name": "amount",
          "type": "uint256"
        }
      ],
      "name": "mint",
      "outputs": [],
      "stateMutability": "nonpayable",
      "type": "function"
    },
    {
      "inputs": [],
      "name": "minter",
      "outputs": [
        {
          "internalType": "address",
          "name": "",
          "type": "address"
        }
      ],
      "stateMutability": "view",
      "type": "function"
    },
    {
      "inputs": [],
      "name": "name",
      "outputs": [
        {
          "internalType": "string",
          "name": "",
          "type": "string"
        }
      ],
      "stateMutability": "view",
      "type": "function"
    },
    {
      "inputs": [],
      "name": "symbol",
      "outputs": [
        {
          "internalType": "string",
          "name": "",
          "type": "string"
        }
      ],
      "stateMutability": "view",
      "type": "function"
    },
    {
      "inputs": [],
      "name": "totalSupply",
      "outputs": [
        {
          "internalType": "uint256",
          "name": "",
          "type": "uint256"
        }
      ],
      "stateMutability": "view",
      "type": "function"
    },
    {
      "inputs": [
        {
          "internalType": "address",
          "name": "to",
          "type": "address"
        },
        {
          "internalType": "uint256",
          "name": "value",
          "type": "uint256"
        }
      ],
      "name": "transfer",
      "outputs": [
        {
          "internalType": "bool",
          "name": "",
          "type": "bool"
        }
      ],
      "stateMutability": "nonpayable",
      "type": "function"
    },
    {
      "inputs": [
        {
          "internalType": "address",
          "name": "from",
          "type": "address"
        },
        {
          "internalType": "address",
          "name": "to",
          "type": "address"
        },
        {
          "internalType": "uint256",
          "name": "value",
          "type": "uint256"
        }
      ],
      "name": "transferFrom",
      "outputs": [
        {
          "internalType": "bool",
          "name": "",
          "type": "bool"
        }
      ],
      "stateMutability": "nonpayable",
      "type": "function"
    },
    {
      "inputs": [
        {
          "internalType": "address",
          "name": "newMinter",
          "type": "address"
        }
      ],
      "name": "transferMinter",
      "outputs": [],
      "stateMutability": "nonpayable",
      "type": "function"
    }
  ],
  "bytecode": "0x60806040523461041957610c896040813803918261001c8161041d565b9384928339810103126104195761003e602061003783610442565b9201610442565b90610049604061041d565b91600a83526921b630bb902a37b5b2b760b11b602084015261006b604061041d565b6004815263434c415760e01b602082015283519092906001600160401b03811161032a57600354600181811c9116801561040f575b602082101461030c57601f81116103ac575b50602094601f8211600114610349579481929394955f9261033e575b50508160011b915f199060031b1c1916176003555b82516001600160401b03811161032a57600454600181811c91168015610320575b602082101461030c57601f81116102a9575b506020601f821160011461024657819293945f9261023b575b50508160011b915f199060031b1c1916176004555b6001600160a01b03168015610228576002546a084595161401484a000000810180911161021457600255805f525f60205260405f206a084595161401484a00000081540190555f7fddf252ad1be2c89b69c2b068fc378daa952ba7f163c4a11628f55a4df523b3ef60206040516a084595161401484a0000008152a3600580546001600160a01b0319166001600160a01b03929092169182179055604051905f7f02ad39e5173f89bdd5497202bd74024b5da045106c3163ddb078d2e89ff6d6de8180a361083290816104578239f35b634e487b7160e01b5f52601160045260245ffd5b63ec442f0560e01b5f525f60045260245ffd5b015190505f8061012f565b601f1982169060045f52805f20915f5b81811061029157509583600195969710610279575b505050811b01600455610144565b01515f1960f88460031b161c191690555f808061026b565b9192602060018192868b015181550194019201610256565b60045f527f8a35acfbc15ff81a39ae7d344fd709f28e8600b4aa8c65c6b64bfe7fe36bd19b601f830160051c81019160208410610302575b601f0160051c01905b8181106102f75750610116565b5f81556001016102ea565b90915081906102e1565b634e487b7160e01b5f52602260045260245ffd5b90607f1690610104565b634e487b7160e01b5f52604160045260245ffd5b015190505f806100ce565b601f1982169560035f52805f20915f5b8881106103945750836001959697981061037c575b505050811b016003556100e3565b01515f1960f88460031b161c191690555f808061036e565b91926020600181928685015181550194019201610359565b60035f527fc2575a0e9e593c00f959f8c92f12db2869c3395a3b0502d05e2516446f71f85b601f830160051c81019160208410610405575b601f0160051c01905b8181106103fa57506100b2565b5f81556001016103ed565b90915081906103e4565b90607f16906100a0565b5f80fd5b6040519190601f01601f191682016001600160401b0381118382101761032a57604052565b51906001600160a01b03821682036104195756fe6080806040526004361015610012575f80fd5b5f3560e01c90816306fdde031461055357508063075461721461052b578063095ea7b3146104a957806318160ddd1461048c57806323b872dd146103ad578063313ce5671461039257806332cb6b0c1461036c57806340c10f191461034557806370a082311461030e57806395d89b41146101f3578063a9059cbb146101c2578063ca7df92c1461019d578063dd62ed3e1461014d5763fe99ad5a146100b6575f80fd5b34610149576020366003190112610149576100cf61064c565b6005546001600160a01b038116913383900361013a576001600160a01b031691821561012b5782907f02ad39e5173f89bdd5497202bd74024b5da045106c3163ddb078d2e89ff6d6de5f80a36001600160a01b03191617600555005b63d92e233d60e01b5f5260045ffd5b633e34a41b60e21b5f5260045ffd5b5f80fd5b346101495760403660031901126101495761016661064c565b61016e610662565b6001600160a01b039182165f908152600160209081526040808320949093168252928352819020549051908152f35b34610149575f3660031901126101495760206040516a084595161401484a0000008152f35b34610149576040366003190112610149576101e86101de61064c565b6024359033610752565b602060405160018152f35b34610149575f366003190112610149576040515f6004548060011c90600181168015610304575b6020831081146102f0578285529081156102d4575060011461027f575b50819003601f01601f191681019067ffffffffffffffff82118183101761026b5761026782918260405282610622565b0390f35b634e487b7160e01b5f52604160045260245ffd5b905060045f527f8a35acfbc15ff81a39ae7d344fd709f28e8600b4aa8c65c6b64bfe7fe36bd19b5f905b8282106102be57506020915082010182610237565b60018160209254838588010152019101906102a9565b90506020925060ff191682840152151560051b82010182610237565b634e487b7160e01b5f52602260045260245ffd5b91607f169161021a565b34610149576020366003190112610149576001600160a01b0361032f61064c565b165f525f602052602060405f2054604051908152f35b346101495760403660031901126101495761036a61036161064c565b60243590610699565b005b34610149575f3660031901126101495760206040516b033b2e3c9fd0803ce80000008152f35b34610149575f36600319011261014957602060405160128152f35b34610149576060366003190112610149576103c661064c565b6103ce610662565b6001600160a01b0382165f818152600160209081526040808320338452909152902054909260443592915f19811061040c575b506101e89350610752565b83811061047157841561045e57331561044b576101e8945f52600160205260405f2060018060a01b0333165f526020528360405f209103905584610401565b634a1406b160e11b5f525f60045260245ffd5b63e602df0560e01b5f525f60045260245ffd5b8390637dc7a0d960e11b5f523360045260245260445260645ffd5b34610149575f366003190112610149576020600254604051908152f35b34610149576040366003190112610149576104c261064c565b60243590331561045e576001600160a01b031690811561044b57335f52600160205260405f20825f526020528060405f20556040519081527f8c5be1e5ebec7d5bd14f71427d1e84f3dd0314c0f7b2291e5b200ac8c7c3b92560203392a3602060405160018152f35b34610149575f366003190112610149576005546040516001600160a01b039091168152602090f35b34610149575f366003190112610149575f6003548060011c90600181168015610618575b6020831081146102f0578285529081156102d457506001146105c35750819003601f01601f191681019067ffffffffffffffff82118183101761026b5761026782918260405282610622565b905060035f527fc2575a0e9e593c00f959f8c92f12db2869c3395a3b0502d05e2516446f71f85b5f905b82821061060257506020915082010182610237565b60018160209254838588010152019101906105ed565b91607f1691610577565b602060409281835280519182918282860152018484015e5f828201840152601f01601f1916010190565b600435906001600160a01b038216820361014957565b602435906001600160a01b038216820361014957565b9190820180921161068557565b634e487b7160e01b5f52601160045260245ffd5b6005546001600160a01b0316330361013a57811561074e576b033b2e3c9fd0803ce80000006106ca83600254610678565b1161073f576001600160a01b031690811561072c577fddf252ad1be2c89b69c2b068fc378daa952ba7f163c4a11628f55a4df523b3ef6020826107105f94600254610678565b60025584845283825260408420818154019055604051908152a3565b63ec442f0560e01b5f525f60045260245ffd5b63d05cb60960e01b5f5260045ffd5b5050565b6001600160a01b03169081156107e9576001600160a01b031691821561072c57815f525f60205260405f20548181106107d057817fddf252ad1be2c89b69c2b068fc378daa952ba7f163c4a11628f55a4df523b3ef92602092855f525f84520360405f2055845f525f825260405f20818154019055604051908152a3565b8263391434e360e21b5f5260045260245260445260645ffd5b634b637e8f60e11b5f525f60045260245ffdfea264697066735822122037e0811dd158fa95cea7a042e9b4d92aa74330d5020d3f06701a0492e8b60cda64736f6c634300081c0033",
  "linkReferences": {},
  "deployedLinkReferences": {},
  "immutableReferences": {},
  "inputSourceName": "project/contracts/ClawToken.sol",
  "buildInfoId": "solc-0_8_28-9f29333fc57e236791ad466a4c63a1754a0ed4df"
}